:020000040000FA
:06000000C1EF00F0120048
:020006001200E6
:060008006EEF00F0120093
:02000E000000F0
:0600180065EF00F012008C
:02001E000100DF
:0C0020000E0000006A000000020000005A
:04002C001E0EF66E40
:10003000000EF76E000EF86E00010900F550656FB6
:100040000900F550666F03E1656701D03DD00900F6
:10005000F550606F0900F550616F0900F550626F4F
:1000600009000900F550E96E0900F550EA6E090033
:1000700009000900F550636F0900F550646F09002D
:100080000900F6CF67F0F7CF68F0F8CF69F060C0ED
:10009000F6FF61C0F7FF62C0F8FF0001635302E1A1
:1000A000645307E00900F550EE6E6307F8E2640759
:1000B000F9D767C0F6FF68C0F7FF69C0F8FF000115
:0A00C0006507000E665BBFD7120053
:0600CA00DACFE4FFE2CFF3
:1000D000DAFFE652E552E5CFDAFF1100DACFE4FFAE
:1000E000E2CFDAFFE652F2A40ED0AA0ED76ED6689F
:1000F00000016A5104E1080E8B6E6A2B03D0040ED6
:100100008B6E6A6BF294E552E5CFDAFF11000001C5
:100110006B5108E109D80BD8936A946A0001010E6B
:100120006B6FD38E03001200960ED36E1200CF0EAB
:10013000926E806AF19EF180030E796EF286D59CF4
:10014000D59AD586FE0ED76EC70ED66ED58ED08EBA
:10015000F28CF28EF28AF28AF184F294D58EF28ECB
:0201600012008B
:0E016200000EF36E00EE00F0030E01D8120046
:10017000EA6002D0EE6AFCD7F350E9601200EE6A42
:02018000FCD7AA
:0E01820011EE00F021EE00F0F86A019C16EC80
:0E01900000F003EC00F087EC00F0FBD712004B
:020000040030CA
:0100010008F6
:0100020019E4
:010003001EDE
:010006008178
:00000001FF
