:020000040000FA
:06000000ECEF1FF01200FE
:020006001200E6
:0600080024EF00F01200DD
:0600180028EF00F01200C9
:06002A000100300500009A
:08003000600000004800000020
:06004000ECEF1FF01200BE
:02004600FFFFBA
:0600480000EF08F01200B9
:0600500008EF09F01200A8
:020056000501A2
:08005800020130511F0B0108E9
:1000600001E012003051600BE842E842E842E84209
:10007000E842010801E01200345103E0340501E0D8
:1000800012003151220A31E0030A24E0010A15E08E
:10009000210A0DE0010A01E012000001EE0EBE6F20
:1000A000000EBF6F080EC16FC26BC08121D000016E
:1000B000EE0EBE6F000EBF6F1BD036C2C6F037C249
:1000C000C7F00001C00EC36F020EC46FC86BC96BCE
:1000D000C58F12000001C00EBE6F020EBF6F070E6B
:1000E000C16FC26BC10EC06F120032C2E9F00001D5
:1000F000C08F12000201C06B4B0EC16FC26BC36B8D
:10010000C46BC56B080EC66F0001DD6B1A0EE66E80
:10011000010EE66E9CEC16F0E552E5521E0EE66E00
:10012000020EE66E9CEC16F0E552E552400EE66ECD
:10013000800EE66E020EE66EE66A020EE66ED3EC06
:1001400016F0106E050EE15E1050F3CFE5F0F4CF1F
:10015000E6F00001E76BE86BDE6B1200D9CFE6FF3B
:10016000E1CFD9FFFD0EDBCF08F0FE0EDBCF09F0AB
:10017000050E081801E1095002E0000E30D0FB0E18
:10018000DBCF10F0FC0EDBCF11F00001E5511018B1
:1001900016E1E651111813E1400EE66E800EE66E90
:1001A000020EE66EE66A020EE66ED3EC16F0106EF4
:1001B000050EE15E1050F3CFE5F0F4CFE6F0FB0E54
:1001C000DBCF10F0FC0EDBCF11F00001E75110186F
:1001D00005E1E851111802E1DE6BE36B010EE55217
:1001E000E7CFD9FF1200D9CFE6FFE1CFD9FF000159
:1001F000DD6BE551E61102E1000E08D0E5C0E9FF34
:10020000E6C0EAFFEF50800B01E0010E000945E176
:10021000FC0EDBCF10F0E5C0E9FFE6C0EAFFEE52CE
:10022000EF50D880105408E2E5C0E9FFE6C0EAFFCD
:10023000EE52FC0EEFCFDBFFDD6BFC0EDB50DD5D25
:1002400019E2DD51EA6A800FE96E020EEA22EF50F0
:10025000E66EDD51E76EFD0EDBCFE9FFFE0EDBCF74
:10026000EAFFE750E926000EEA22E552E750EF6E7A
:10027000DD2BE3D7400EE66E800EE66E020EE66ED4
:10028000E66A020EE66ED3EC16F0106E050EE15E25
:100290001050F3CFE5F0F4CFE6F00001DD51E55268
:1002A000E7CFD9FF1200D9CFE6FFE1CFD9FFA09465
:1002B0000001DE510CE1FD0EDBCFDFF0FE0EDBCFE7
:1002C000E0F0FC0EDBCFE3F0010EE46FDE6FA08404
:1002D000E552E7CFD9FF1200D9CFE6FFE1CFD9FF32
:1002E000030EE126A0940001DE512DE1DF6AFD0E30
:1002F000DBCF08F0FE0EDBCF09F0DE5208C0DEFFD8
:1003000009C0DDFFDD52DF2ADF50106E116AFF0EDB
:10031000101802E111500BE0010EDBCFE9FFDB2AE0
:10032000020EDBCFEAFF01E3DB2AEF50ECE1FD0E2A
:10033000DBCFDFF0FE0EDBCFE0F0DFCFE3F000013C
:10034000010EE46FDE6FA084030EE15C02E2E16A5D
:10035000E552E16EE552E7CFD9FF1200D9CFE6FFB3
:10036000E1CFD9FF030EE126A0940001DE512EE17A
:10037000DF6AFD0EDBCF08F0FE0EDBCF09F0DE52A8
:1003800008C0DEFF09C0DDFFDD52DF2ADF50106E3E
:10039000116AFF0E101802E111500CE0010EDBCFC4
:1003A000F6FFDB2A020EDBCFF7FF01E3DB2A0800B2
:1003B000F550EBE1FD0EDBCFDFF0FE0EDBCFE0F022
:1003C000DFCFE3F00001E46B010EDE6FA084030ECB
:1003D000E15C02E2E16AE552E16EE552E7CFD9FF66
:1003E0001200D9CFE6FFE1CFD9FF020EE126A0949B
:1003F0000001E751E81102E1000E08D0E7C0E9FF73
:10040000E8C0EAFFEF50800B01E0010E000906E1B1
:10041000030EDE5D01E1DE6BDE5102E1A0847ED0E1
:10042000020EDE5D16E1E66A000EE66EE66A010E79
:10043000E66E020EE66ED3EC16F0106E050EE15E6F
:100440001050F3CFE7F0F4CFE8F00001030EDE6FB9
:1004500064D0DE0562E1400E106E116AE351105C5B
:10046000000E115803E2400EDF6E02D0E3C0DFFF42
:10047000DF50E35DE36F400EE16F020EE26F010EAD
:10048000DFCFDBFFE45116E1010EDB5028E0DFC0D7
:10049000F6FFE0C0F7FF0800F550E1C0E9FFE2C059
:1004A000EAFFEF6EE12B000EE223DF2BE023010ECB
:1004B000DB06EAD7010EDB5012E0DFC0E9FFE0C047
:1004C000EAFFEF50E1C0E9FFE2C0EAFFEF6EE12B87
:1004D000000EE223DF2BE023010EDB06EBD7000149
:1004E000E35107E1400EDF5C02E1020E01D0030E92
:1004F000DE6FDFCFE6FF400EE66E020EE66E010E07
:10050000E66E020EE66ED3EC16F0106E050EE15E9E
:100510001050F3CFE7F0F4CFE8F0A084020EE15CD6
:1005200002E2E16AE552E16EE552E7CFD9FF12003F
:1005300000434443205443204C4F474745522044F6
:100540004556494345204259204D414B494E47208D
:10055000444556494345532048573A312E3262208C
:1005600046573A312E35300A0000000000000000E6
:08057000000000000000000083
:10100000DACFE4FFE2CFDAFFE9CFE4FFEACFE4FF93
:10101000F6CFE4FFF7CFE4FFF5CFE4FFF3CFE4FF33
:10102000F4CFE4FFFACFE4FF00EE00F0100EE80486
:1010300003E3EECFE4FFFBD700EE10F0040EE8046C
:1010400003E3EECFE4FFFBD7E652E8EC15F0F2A4A1
:10105000BBD0500ED76E380ED66EF2940001985168
:101060005AE18B92AFEC1FF00101DA6FAFEC1FF089
:101070000101DB6FAFEC1FF00101DC6FAFEC1FF083
:101080000101DD6F8B820001010E986F0101ED6B94
:10109000EE6B040EEEAF02D0D89003D0ED5D000EE3
:1010A000EE5915E2DA0EED25E96E010EEE21EA6E3B
:1010B000EF50E66EE20EED25E96E010EEE21EA6ECE
:1010C000E552E750EF6EED2B000EEE23E2D7020E55
:1010D0000001E76E9919E8AE02D0E73402D0E7507C
:1010E000995D12E2070E0101DD15000804E3010E0F
:1010F000DB15000805E28B840001010E996F64D0B6
:101100008B940001996B60D0020E995D02E18B8493
:101110005BD08B9459D08B90AFEC1FF00101DE6F48
:10112000AFEC1FF00101DF6FAFEC1FF00101E06FCA
:10113000AFEC1FF00101E16F8B800001986B040E92
:101140000101ED6FEE6B080EEEAF02D0D89003D028
:10115000ED5D000EEE5915E2DA0EED25E96E010E99
:10116000EE21EA6EEF50E66EE20EED25E96E010E1D
:10117000EE21EA6EE552E750EF6EED2B000EEE2306
:10118000E2D7020E0001E76E9A19E8AE02D0E7340A
:1011900002D0E7509A5D12E2070E0101E115000846
:1011A00004E3010EDF15000805E28B860001010E45
:1011B0009A6F0AD08B9600019A6B06D0020E9A5D48
:1011C00002E18B8601D08B96E55200EE13F0040EFF
:1011D000E80403E3E5CFEDFFFBD700EE0FF0100EC0
:1011E000E80403E3E5CFEDFFFBD7E5CFFAFFE5CF5A
:1011F000F4FFE5CFF3FFE5CFF5FFE5CFF7FFE5CF50
:10120000F6FFE5CFEAFFE5CFE9FFE5CFDAFF110012
:10121000D8CFE4FFE0CFE4FFE46EDACFE4FFE6529C
:10122000E552E5CFDAFFE550E5CFE0FFE5CFD8FFA7
:101230001000D59CD59AD596D594D582D580500EE0
:10124000D76E380ED66ED58ED08EF28CF28EF28A94
:10125000F28AF184F294D58EF28E120080DBE9DFFF
:10126000946A8B808B823F0E936E7F94800EE66E25
:10127000E66A010EE66E3BEC1FF0E552E552E552E0
:101280000001A85102E117EC18F018EC0FF0F8D7A4
:10129000D9CFE6FFE1CFD9FFE652DF6A00019B6BB1
:1012A0009C6B9D6B9E6BFD0EDB50800B80081DE1DF
:1012B000010EDF6EFC0EDB50020807E1FE0EDB5074
:1012C000FC0AE76EFE0EE7CFDBFFFC0EDB0407E156
:1012D000FE0EDB50F00AE76EFE0EE7CFDBFFFD0EE1
:1012E000DB1CE76EFD0EE7CFDBFFFC0EDB0401E04D
:1012F00078D0DF0414E1FE0EDB50106E116AD89036
:10130000115004E6F00E105C000E115808E2FE0EBB
:10131000DB50100FE76EFE0EE7CFDBFF06D0DF04D9
:1013200004E1FE0EDB6AFD0EDB2AFE0EDB50010B34
:10133000010802E1D40E7CD0FE0EDB50020B020845
:1013400002E1D30E75D0FE0EDB50040B040802E15F
:10135000D20E6ED0FE0EDB50100B100804E1060E0C
:101360009D27000E9E23FE0EDB50200B200804E17B
:101370000C0E9D27000E9E23FE0EDB50400B4008F6
:1013800004E1190E9D27000E9E23FE0EDB50800BFC
:10139000800804E1320E9D27000E9E23FD0EDB50D7
:1013A000100B100806E1100E9B259B6F000E9C2170
:1013B0009C6FFD0EDB50200B200806E1200E9B25C4
:1013C0009B6F000E9C219C6FFD0EDB50400B400874
:1013D00001E082D0400E9B259B6F000E9C219C6FEC
:1013E0007BD0100EF36EFC0EF3CFDBFFDF0414E1B5
:1013F000FE0EDB50106E116AD890115004E6FC0E00
:10140000105C000E115808E2FE0EDB50040FE76E70
:10141000FE0EE7CFDBFF06D0DF0404E1FE0EDB6A41
:10142000FD0EDB2AFE0EDB50010B010805E1D10E9B
:101430009B6FFE0E9C6F8ED0FE0EDB50040B0408DB
:1014400004E1190E9D27000E9E23FE0EDB50080BB3
:10145000080804E1320E9D27000E9E23FE0EDB508D
:10146000100B100803E19B2B000E9C23FE0EDB509B
:10147000200B200804E1020E9B27000E9C23FE0E89
:10148000DB50400B400804E1040E9B27000E9C2318
:10149000FE0EDB50800B800804E1080E9B27000E37
:1014A0009C23FD0EDB50100B100804E1000E9B275F
:1014B000010E9C23FD0EDB50200B200804E1000EE2
:1014C0009B27020E9C23FD0EDB50400B400804E1DD
:1014D000000E9B27040E9C23FD0EDB50010B010820
:1014E00007E1FC0EDB50116AE8509B2711509C234A
:1014F000FD0EDB50020B020808E1FC0EDB50E82475
:10150000116AE8509B2711509C23FD0EDB50040B01
:10151000040809E1FC0EDB50040DF350116AF3508E
:101520009B2711509C23FD0EDB50080B080809E196
:10153000FC0EDB50080DF350116AF3509B2711503D
:101540009C23DF0407E19B6D9C1F000E9C239D6D77
:101550009E1F9E23E552E552E7CFD9FF1200D9CF57
:10156000E6FFE1CFD9FF060EE126020EDB6A030E8D
:10157000DB6A0101EB6BEC6B9BC0EDF19CC0EEF103
:10158000FD0EDBCFDEFFDBCFDDFFED51EE1132E1F3
:1015900000019D519E112EE1DFCFE9FFDF2A010EF0
:1015A000DBCFEAFF01E3DB2A300EEF6EDFCFE9FF8E
:1015B000DF2A010EDBCFEAFF01E3DB2A2E0EEF6EFE
:1015C000DFCFE9FFDF2A010EDBCFEAFF01E3DB2AF1
:1015D000300EEF6EDFCFE9FFDF2A010EDBCFEAFF2F
:1015E00001E3DB2A300EEF6EDECFE9FFDDCFEAFF4D
:1015F000EF6AA7D10101800EEE1504E10001800E13
:101600009E1518E0FD0EDBCFE9FFDB2AFE0EDBCFD7
:10161000EAFF01E3DB2A2D0EEF6EFD0EDBCFDEFFCE
:10162000DBCFDDFF0101800EEE1504E0ED6DEE1F56
:10163000000EEE230101ED51EE110CE1020EDB2A4A
:10164000DFCFE9FFDF2A010EDBCFEAFF01E3DB2A70
:10165000300EEF6E0101ED51EE1130E0020EDB2A8B
:10166000EDC1EBF1EEC1ECF10A0E0D6E0E6AEDC1AB
:1016700008F0EEC109F06FEC1FF004C0EBF105C0FB
:10168000ECF1300E01010424E66EDFCFE9FFDF2A22
:10169000010EDBCFEAFF01E3DB2AE552E750EF6EF4
:1016A0000A0E0D6E0E6AEDC108F0EEC109F06FEC86
:1016B0001FF008C0EDF109C0EEF1CCD7EB6BEC6B7D
:1016C000020EDB50FE0BE842EB5D65E2EB51E76E8C
:1016D000FD0EDBCFE9FFFE0EDBCFEAFFE750E92688
:1016E000000EEA22EF50E66E020EDB50E76EFD0EB2
:1016F000DBCFE9FFFE0EDBCFEAFFE750E926000E65
:10170000EA22E552E750EF6E020EDB50D880EB552F
:10171000FF0FE76EFD0EDBCFE9FFFE0EDBCFEAFF2A
:10172000E750E926000EEA22EF50E66EEB51E76E35
:10173000FD0EDBCFE9FFFE0EDBCFEAFFE750E92627
:10174000000EEA22E552E750EF6E020EDB50E76E24
:10175000FD0EDBCFE9FFFE0EDBCFEAFFE750E92607
:10176000000EEA22EF50E66E020EDB50D880EB55F9
:10177000FF0FE76EFD0EDBCFE9FFFE0EDBCFEAFFCA
:10178000E750E926000EEA22E552E750EF6EEB2B18
:10179000000EEC2395D79DC0EDF19EC0EEF1800EBA
:1017A000EE1504E0ED6DEE1F000EEE23ED51EE118F
:1017B0002FE1040EF36E020EDBCFF4FFF350F45C66
:1017C00027E2020EDB50E76EFD0EDBCFE9FFFE0ED7
:1017D000DBCFEAFFE750E926000EEA22020EE926F7
:1017E000000EEA22300EEF6E020EDB50E76EFD0EA9
:1017F000DBCFE9FFFE0EDBCFEAFFE750E926000E64
:10180000EA22010EE926000EEA22300EEF6E71D0B8
:10181000040EF36E020EDBCFF4FFF350F45C01E331
:1018200089D0EB6BEC6B300EF36E050EF3CFDBFF64
:101830000101ED51EE1135E0EDC1EBF1EEC1ECF13E
:101840000A0E0D6E0E6AEDC108F0EEC109F06FECE4
:101850001FF004C0EBF105C0ECF1300E01010424CF
:10186000E66ED950040F106EDACF11F0030EDB5084
:101870000F011024E96E000EDA20EA6EE552E750FF
:10188000EF6E0A0E0D6E0E6AEDC108F0EEC109F0A2
:101890006FEC1FF008C0EDF109C0EEF1030EDB2A7A
:1018A000C7D7020EDB50E76EFD0EDBCFE9FFFE0E61
:1018B000DBCFEAFFE750E926000EEA22020EE92616
:1018C000000EEA22040EDBCFEFFF020EDB50E76EC4
:1018D000FD0EDBCFE9FFFE0EDBCFEAFFE750E92686
:1018E000000EEA22010EE926000EEA22050EDBCFE9
:1018F000EFFF020EDB50E76EFD0EDBCFE9FFFE0EC1
:10190000DBCFEAFFE750E926000EEA222E0EEF6E4B
:10191000DECFE9FFDDCFEAFF030EE926000EEA2263
:10192000EF6A020EDBCFE7FFE850E726020EE7CFB3
:10193000DBFF07D0DECFE9FFDDCFEAFFEF6A020E63
:10194000DB06020EDB28106E060EE15C02E2E16AA5
:10195000E552E16E1050E552E7CFD9FF120002D8F0
:1019600058EF15F01200D9CFE6FFE1CFD9FF630E93
:101970000001A05D0CE1FE0EDBCFE6FF700EE66E0F
:10198000010EE66E53EC01F0E552E552E55200011E
:10199000090E9F6FE552E7CFD9FF120092C170F197
:1019A00093C171F194C172F195C173F196C174F153
:1019B00097C175F112000101ED6BEE6B220EEEAFD7
:1019C00002D0D89003D0ED5D000EEE590CE2700EFF
:1019D000ED25E96E010EEE21EA6EEF502008ED2BA9
:1019E000000EEE23EBD7ED6BEE6B080EEEAF02D0E0
:1019F000D89003D0ED5D000EEE590CE2920EED256D
:101A0000E96E010EEE21EA6EEF502008ED2B000E7C
:101A1000EE23EBD7ED6BEE6B400EEEAF02D0D8901D
:101A200003D0ED5D000EEE590CE29A0EED25E96E45
:101A3000010EEE21EA6EEF502008ED2B000EEE2392
:101A4000EBD712000001A26BA36BA46B1200D9CFDD
:101A5000E6FFE1CFD9FF0101ED6BEE6B1E0EEEAF9D
:101A600002D0D89003D0ED5D000EEE5915E2FD0EC8
:101A7000DB50ED250F01E96EFE0EDB500101EE217A
:101A80000F01EA6EEF500A0807E0EDC1A6F0010170
:101A9000ED2B000EEE23E2D70101ED6BEE6B1E0E77
:101AA000EEAF02D0D89003D0ED5D000EEE5915E2F6
:101AB000FB0EDB50ED250F01E96EFC0EDB50010142
:101AC000EE210F01EA6EEF500A0807E0EDC1A7F022
:101AD0000101ED2B000EEE23E2D70101ED6BEE6B61
:101AE0000001A651A725106E116A10BE11680101F0
:101AF000EE511118E8AE02D0113404D01050ED5D53
:101B00001150EE5931E2A6C010F0116A10BE1168F2
:101B10001150EE19E8AE02D0EE3504D0ED51105C54
:101B2000EE5111581CE2FB0EDB50ED250F01E96E62
:101B3000FC0EDB500101EE210F01EA6EEF50E66E64
:101B4000FD0EDB500101ED250F01E96EFE0EDB50AD
:101B50000101EE210F01EA6EE552E750EF6E01013F
:101B6000ED2B000EEE23BCD70001A629106E116AE2
:101B700010BE1168FD0EDB501024E96EFE0EDB5026
:101B80001120EA6E2C0EEF6E020EA6250101ED6FFC
:101B9000EE6B800B01E0EE690001A651A725030F53
:101BA000106E116A10BE11680101EE511118E8AEF5
:101BB00002D0113404D01050ED5D1150EE592BE2DB
:101BC000020E0001A625126E136A12BE13680101EF
:101BD0001250ED5D106E1350EE59116EFB0EDB507E
:101BE0001024E96EFC0EDB501120EA6EEF50E66E19
:101BF000FD0EDB50ED250F01E96EFE0EDB500101FD
:101C0000EE210F01EA6EE552E750EF6E0101ED2B78
:101C1000000EEE23C1D70001A651A725030F106EB9
:101C2000116A10BE1168FD0EDB501024E96EFE0E25
:101C3000DB501120EA6E0A0EEF6EA651A725040FA5
:101C40000101EA6FE552E7CFD9FF120000019F5171
:101C5000090A01E189D00F0A01E17AD0030A6DE097
:101C6000060A5FE0010A51E0030A42E0010A01E0CE
:101C70001200A4C0E6FFA351EA6AE20FE96E010E6A
:101C8000EA22EF50E66EA251EA6AE20FE96E010E17
:101C9000EA22EF50E66E48EC09F0E552E552E552D3
:101CA000D1DE920EE66E010EE66E59DCE552E5528B
:101CB0000101EA6F000160050FE170DE0101EA51E8
:101CC000EA2BE96EEA6AE9BEEA68700EE926010EBF
:101CD000EA220A0EEF6E6AD0EAC1E9FFEA6AE9BEBB
:101CE000EA68920EE926010EEA220A0EEF6E51D042
:101CF000600507E192C170F101010A0E716F020ED9
:101D00003ED001010A0E936F44D0600506E146DE25
:101D100001010A0E746F050E32D001010A0E966F92
:101D200038D0600506E13ADE01010A0E766F070E33
:101D300026D001010A0E986F2CD0370EE66E610E88
:101D4000E66E000EE66E53EC01F0E552E55231D03E
:101D5000600506E123DE01010A0E756F060E0FD045
:101D600001010A0E976F15D060050BE10101450EC8
:101D7000706F720E716F726F0A0E736F040EE66EE3
:101D800017D00101450E926F720E936F946F0A0E79
:101D9000956F920EE66E010EE66E700EE66E010E07
:101DA000E66E55DEE552E552E552E552EAC1E6FF40
:101DB000DADDE5521200D9CFE6FFE1CFD9FF00010D
:101DC000602BFE0EDBCFE9FFEA6AE9BEEA689A0EF5
:101DD000E926010EEA22EF500A0802E1630E23D041
:101DE000FE0EDBCFE9FFEA6AE9BEEA689A0EE92651
:101DF000010EEA22EF503B0817E1FE0EDB28E96EE8
:101E0000EA6AE9BEEA689A0EE926010EEA22EF5074
:101E10003A0807E1FE0EDB28A16FA06B010EA56F4B
:101E200003D0FE0EDB28A06FE552E7CFD9FF1200EA
:101E3000D9CFE6FFE1CFD9FFE652200E0001E76ED1
:101E4000A819E8AE02D0E73402D0E750A85D02E25C
:101E5000DCEF14F06450020B02E0DCEF14F0000140
:101E6000DE5102E0DAEF14F0400EE66E9A0EE66EF6
:101E7000010EE66EF3EC00F0E552E552E552DF6E3E
:101E8000DF5002E1DAEF14F0DF500001A05D02E361
:101E9000D7EF14F0090E9F6FA1C0E9FFEA6AE9BE0F
:101EA000EA689A0EE926010EEA22EF503A0801E0AC
:101EB0007BD1A129E96EEA6AE9BEEA689A0EE926B1
:101EC000010EEA22EF504D0801E06ED1020EA1256D
:101ED000E96EEA6AE9BEEA689A0EE926010EEA228C
:101EE000EF50450801E060D1030EA125E96EEA6AD2
:101EF000E9BEEA689A0EE926010EEA22EF5041088F
:101F000001E052D1040EA125E96EEA6AE9BEEA6851
:101F10009A0EE926010EEA22EF50530801E044D15F
:101F2000050EA125E96EEA6AE9BEEA689A0EE9267D
:101F3000010EEA22EF503A0801E036D10101ED6BC3
:101F4000EE6B020EEEAF02D0D89003D0ED5D000E26
:101F5000EE5901E329D1040EEF6FED51EE1104E1CA
:101F6000310EF06FEF6B02D0320EF06F060E0001F3
:101F7000A125E96EEA6AE9BEEA689A0EE926010E31
:101F8000EA22EF50540801E00AD1070EA125E96EBC
:101F9000EA6AE9BEEA689A0EE926010EEA22EF50E3
:101FA000430801E0FCD0080EA125E96EEA6AE9BE0B
:101FB000EA689A0EE926010EEA22EF500101F05D6F
:101FC00001E0EDD0090E0001A125E96EEA6AE9BE43
:101FD000EA689A0EE926010EEA22EF503A0801E07B
:101FE000DED0A05103E10A0EA125A06FA0C0E9FF39
:101FF000EA6AE9BEEA689A0EE926010EEA22EF5083
:10200000490834E1A029E96EEA6AE9BEEA689A0E55
:10201000E926010EEA22EF504E0828E1020EA02523
:10202000E96EEA6AE9BEEA689A0EE926010EEA223A
:10203000EF5054081BE1030EA025E96EEA6AE9BEE1
:10204000EA689A0EE926010EEA22EF503F080EE1F7
:10205000070E0101D880EF550001A26F060E0101A5
:10206000D880EF550001A36F010E3FD0A0C0E9FF5B
:10207000EA6AE9BEEA689A0EE926010EEA22EF5002
:1020800045083BE1A029E96EEA6AE9BEEA689A0ED2
:10209000E926010EEA22EF5058082FE1020EA02592
:1020A000E96EEA6AE9BEEA689A0EE926010EEA22BA
:1020B000EF50540822E1030EA025E96EEA6AE9BE5A
:1020C000EA689A0EE926010EEA22EF503F0815E170
:1020D000050E0101D880EF550001A26F040E010129
:1020E000D880EF550001A36F020EA46F9F6B040E02
:1020F000A025E66E60DEE55257D0A0C0E9FFEA6A8F
:10210000E9BEEA689A0EE926010EEA22EF504C0871
:1021100046E1A029E96EEA6AE9BEEA689A0EE92674
:10212000010EEA22EF5045083AE1020EA025E96EC1
:10213000EA6AE9BEEA689A0EE926010EEA22EF5041
:1021400044082DE1030EA025E96EEA6AE9BEEA68BB
:102150009A0EE926010EEA22EF503F0820E1990E7F
:102160000101ED25E96E000EEE21EA6EEF0409E0B3
:10217000990EED25E96E000EEE21EA6EEF50020891
:1021800002E1310E01D0300E926F040E0001A02545
:10219000E66E11DEE5520001010E9F6F05D00101D0
:1021A000ED2B000EEE23CDD60001A55101E05FD14D
:1021B000A1C0E9FFEA6AE9BEEA689A0EE926010EC3
:1021C000EA22EF503A0801E052D1A129E96EEA6A09
:1021D000E9BEEA689A0EE926010EEA22EF5053089A
:1021E00001E045D1020EA125E96EEA6AE9BEEA687E
:1021F0009A0EE926010EEA22EF50450801E037D198
:10220000030EA125E96EEA6AE9BEEA689A0EE9269C
:10221000010EEA22EF50540801E029D1040EA12555
:10222000E96EEA6AE9BEEA689A0EE926010EEA2238
:10223000EF503A0801E01BD10101ED6BEE6B020E8D
:10224000EEAF02D0D89003D0ED5D000EEE5901E361
:102250000ED1ED51EE1102E1310E01D0320EF06FD0
:10226000050E0001A125E96EEA6AE9BEEA689A0E48
:10227000E926010EEA22EF50540801E0F3D0060EE1
:10228000A125E96EEA6AE9BEEA689A0EE926010E1E
:10229000EA22EF50430801E0E5D0070EA125E96EE0
:1022A000EA6AE9BEEA689A0EE926010EEA22EF50D0
:1022B0000101F05D01E0D6D0080E0001A125E96E14
:1022C000EA6AE9BEEA689A0EE926010EEA22EF50B0
:1022D0003A0801E0C7D0A05103E1090EA125A06F83
:1022E000A0C0E9FFEA6AE9BEEA689A0EE926010E93
:1022F000EA22EF504C0801E0B5D0A029E96EEA6A65
:10230000E9BEEA689A0EE926010EEA22EF50450876
:1023100001E0A8D0020EA025E96EEA6AE9BEEA68EB
:102320009A0EE926010EEA22EF50440801E09AD005
:10233000030EA025E96EEA6AE9BEEA689A0EE9266C
:10234000010EEA22EF50200801E08CD0040EA025F7
:10235000E96EEA6AE9BEEA689A0EE926010EEA2207
:10236000EF5041083CE1050EA025E96EEA6AE9BE9E
:10237000EA689A0EE926010EEA22EF5055082FE18D
:10238000060EA025E96EEA6AE9BEEA689A0EE92619
:10239000010EEA22EF50540822E1070EA025E96E53
:1023A000EA6AE9BEEA689A0EE926010EEA22EF50CF
:1023B0004F0815E1990E0101ED25E96E000EEE21A1
:1023C000EA6EEF6A410E926F550E936F540E946F42
:1023D0004F0E956F0001020E9F6F080E3ED0040E47
:1023E000A025E96EEA6AE9BEEA689A0EE926010EBE
:1023F000EA22EF50310815E1990E0101ED25E96E51
:10240000000EEE21EA6E020EEF6E310E926F050E97
:102410000001A025E66ECFDCE5520001010E9F6FA2
:1024200026D0040EA025E96EEA6AE9BEEA689A0E93
:10243000E926010EEA22EF50300814E1990E01015D
:10244000ED25E96E000EEE21EA6E030EEF6E300E02
:10245000926F0001010E9F6F050EA025E66EABDCAA
:10246000E55205D00101ED2B000EEE23E8D6000168
:10247000A55101E011D1A1C0E9FFEA6AE9BEEA680D
:102480009A0EE926010EEA22EF503A0801E004D143
:10249000A129E96EEA6AE9BEEA689A0EE926010E08
:1024A000EA22EF504D0801E0F7D0020EA125E96EB7
:1024B000EA6AE9BEEA689A0EE926010EEA22EF50BE
:1024C0004F0801E0E9D0030EA125E96EEA6AE9BEF2
:1024D000EA689A0EE926010EEA22EF50440801E06C
:1024E000DBD0040EA125E96EEA6AE9BEEA689A0E1D
:1024F000E926010EEA22EF50450801E0CDD0050E95
:10250000A125E96EEA6AE9BEEA689A0EE926010E9B
:10251000EA22EF503A0801E0BFD0060EA125E96E8D
:10252000EA6AE9BEEA689A0EE926010EEA22EF504D
:102530004C0801E0B1D0070EA125E96EEA6AE9BEB8
:10254000EA689A0EE926010EEA22EF50450801E0FA
:10255000A3D0080EA125E96EEA6AE9BEEA689A0EE0
:10256000E926010EEA22EF50440801E095D0090E59
:10257000A125E96EEA6AE9BEEA689A0EE926010E2B
:10258000EA22EF503A0801E087D0A05103E10A0E99
:10259000A125A06FA0C0E9FFEA6AE9BEEA689A0E29
:1025A000E926010EEA22EF50540801E075D0A02977
:1025B000E96EEA6AE9BEEA689A0EE926010EEA22A5
:1025C000EF50430869E10101ED6BEE6B020EEEAFD7
:1025D00002D0D89003D0ED5D000EEE595DE2ED51D2
:1025E000EE1102E1310E01D0320EF06F020E000149
:1025F000A025E96EEA6AE9BEEA689A0EE926010EAC
:10260000EA22EF500101F05D42E1030E0001A02536
:10261000E96EEA6AE9BEEA689A0EE926010EEA2244
:10262000EF503F0834E1990E0101ED25E96E000EEF
:10263000EE21EA6EEFCF10F0020EE76E1018E8AE52
:1026400002D0E73402D0E750105C0BE2410E926FEB
:10265000550E936F540E946F4F0E956F0001020E3E
:102660000ED04D0E926F410E936F4E0E946F550E1D
:10267000956F410E966F4C0E976F0001030E9F6F82
:10268000040EA025E66EDBEC0EF0E55205D001014C
:10269000ED2B000EEE239AD70001A55101E0EAD000
:1026A000A1C0E9FFEA6AE9BEEA689A0EE926010ECE
:1026B000EA22EF503A0801E0DDD0A129E96EEA6A8A
:1026C000E9BEEA689A0EE926010EEA22EF504308B5
:1026D00001E0D0D0020EA125E96EEA6AE9BEEA68FF
:1026E0009A0EE926010EEA22EF504F0801E0C2D00F
:1026F000030EA125E96EEA6AE9BEEA689A0EE926A8
:10270000010EEA22EF504E0801E0B4D0040EA125DC
:10271000E96EEA6AE9BEEA689A0EE926010EEA2243
:10272000EF50460801E0A6D0050EA125E96EEA6A41
:10273000E9BEEA689A0EE926010EEA22EF5049083E
:1027400001E098D0060EA125E96EEA6AE9BEEA68C2
:102750009A0EE926010EEA22EF50470801E08AD0DE
:10276000070EA125E96EEA6AE9BEEA689A0EE92633
:10277000010EEA22EF503A0801E07CD0A05103E1BB
:10278000080EA125A06FA0C0E9FFEA6AE9BEEA68C9
:102790009A0EE926010EEA22EF50410834E1A02901
:1027A000E96EEA6AE9BEEA689A0EE926010EEA22B3
:1027B000EF50500828E1020EA025E96EEA6AE9BE52
:1027C000EA689A0EE926010EEA22EF5050081BE152
:1027D000030EA025E96EEA6AE9BEEA689A0EE926C8
:1027E000010EEA22EF503F080EE10101310E926F17
:1027F0002E0E936F350E946F300E956F0001020E02
:102800009F6F040E32D0A0C0E9FFEA6AE9BEEA6811
:102810009A0EE926010EEA22EF5048082BE1A02982
:10282000E96EEA6AE9BEEA689A0EE926010EEA2232
:10283000EF5057081FE1020EA025E96EEA6AE9BED3
:10284000EA689A0EE926010EEA22EF503F0812E1EB
:102850000101310E926F2E0E936F320E946F620E45
:10286000956F0001020E9F6F030EA025E66EDBEC54
:102870000EF0E5520001A5511AE12A0E01019A5D00
:1028800016E1490E9B5D13E1440E9C5D10E14E0E76
:102890009D5D0DE13F0E9E5D0AE10A0E9F5D07E121
:1028A0000001050E9F6F010E606F630EA06F0001A7
:1028B000A5516CE1A1C0E9FFEA6AE9BEEA689A0E97
:1028C000E926010EEA22EF503A0860E1A129E96EFB
:1028D000EA6AE9BEEA689A0EE926010EEA22EF509A
:1028E000680854E1020EA125E96EEA6AE9BEEA68C9
:1028F0009A0EE926010EEA22EF50650847E1030E21
:10290000A125E96EEA6AE9BEEA689A0EE926010E97
:10291000EA22EF506C083AE1040EA125E96EEA6A5A
:10292000E9BEEA689A0EE926010EEA22EF506C0829
:102930002DE1050EA125E96EEA6AE9BEEA689A0E64
:10294000E926010EEA22EF506F0820E1060EA125CC
:10295000E96EEA6AE9BEEA689A0EE926010EEA2201
:10296000EF503F0813E10101680E926F650E936FFF
:102970006C0E946F956F6F0E966F0001060E9F6F31
:10298000070EA025E66EDBEC0EF0E552090E000105
:102990009F5D07E1DBEC0CF00001010E606F630E40
:1029A000A06F26EC0EF00001A56B44EF0FF0606BFA
:1029B000A06BA16BF1EC01F0E552E552E7CFD9FF36
:1029C000120012001200120012002CEF00F0120090
:1029D0007AEF00F00001CC0520E10001CD051DE1FA
:1029E000A094F0DF64920001CD6B0101100EF16F35
:1029F0000E0EF26FF107000EF25BF151F211FAE1E7
:102A00006484080EF16F070EF26FF107000EF25B9F
:102A1000F151F211FAE16494A0841200D9CFE6FFDB
:102A2000E1CFD9FFFD0EDBCF08F0FE0EDBCF09F0C2
:102A3000050E081801E1095036E0E868081802E1BF
:102A40007F0E09182FE0030E081801E1095028E055
:102A5000020E081801E1095021E0010E081801E1F9
:102A600009501AE0740E081801E1095013E0750EC0
:102A7000081801E109500CE0730E081801E1095033
:102A800005E0720E08180FE109500DD09CDF0BD045
:102A900098DF09D097DF07D09BDF05D098DF03D000
:102AA00094DF01D091DF010EE552E7CFD9FF12008C
:102AB000D9CFE6FFE1CFD9FFE652A0940F015F6BBB
:102AC000626A536B020EE66EE66AE66A540EE66EC2
:102AD0000F0EE66E95EC1FF0106E050EE15E1050C5
:102AE000160E616E0F019F0E5B6F7B0E606EDF6ACC
:102AF000DF50106E116A0C0E105C000E115810E2BF
:102B0000DF50040DF3CFE9FFF4CFEAFF000EE92612
:102B1000020EEA22EE6AEE6AEE6AEE6ADF2AE8D771
:102B2000648C0F015C6B6498649C62A607D062960B
:102B30000001C06BC56BC66BC76BF7D70001010EF8
:102B4000D96FDA6FDB6BDC6BCD6BDF6A030EDF5C9A
:102B500026E2EA6ADF34FE0BEA36E96EB60EE926B3
:102B6000000EEA22EE6AED6AEA6ADF34FE0BEA360C
:102B7000E96EB00EE926000EEA22EE6AED6ADF5039
:102B8000EA6AD10FE96E000EEA22EF6ADF50EA6AC4
:102B9000D40FE96E000EEA22EF6ADF2AD7D70001D0
:102BA000080EB66F020EB76F0F01160E536F0201BB
:102BB000300E026F020E036F080E016F840E006F5D
:102BC0000001A96BA86BE552E552E7CFD9FF1200CF
:102BD000D9CFE6FFE1CFD9FFE6520001A80507E112
:102BE00064BA05D0626A60806088020EA86F625085
:102BF000040B06E06050040B03E06294D1EC1BF080
:102C000064B25AD06250010B09E06050010B06E03B
:102C10004FDFA0840001040EA86F62906250100B79
:102C200006E06050100B03E0BCEC1BF0629862AC55
:102C300019D060AC0FD0010EE66EE66A000EE66EAB
:102C4000E66A730EE66EE66A0EEC15F0106E060E7E
:102C5000E15E1050629C0001D75101E0D707D751C7
:102C600001E1FDD96250200B05E06050200B02E02D
:102C7000A2EC1BF06250020B14E06050020B11E05A
:102C8000010EE66EE66A000EE66EE66AE6687F0E04
:102C9000E66E0EEC15F0106E060EE15E10500F01A0
:102CA0005F6B040E0001E76EA819E8AE02D0E734AE
:102CB00002D0E750A85D02E2A19439D060A636D0D8
:102CC000DF6A040EDF5C32E262A630D063CFCEF062
:102CD0000001CE51780BE842E842E842CF6F62969D
:102CE000CEB506D0CF51EA6AD40FE96E000E05D0FA
:102CF000CF51EA6AD10FE96E000EEA22EF70CF5190
:102D000003E1E8EC1BF010D0000EE66EE66ACE0E92
:102D1000E66E000EE66E720EE66EE66A0EEC15F0DA
:102D2000106E060EE15E1050DF2ACBD7A194E5525B
:102D3000E552E7CFD9FF1200D9CFE6FFE1CFD9FFA7
:102D4000020EE126FD0EDBA407D0E66AFE0EDBCF05
:102D5000E6FF14DAE552E552FD0EDBA208D0010EC3
:102D6000E66EFE0EDBCFE6FF09DAE552E552FE0E17
:102D7000DB50116A530F106E0F0E112210C0DEFFD0
:102D800011C0DDFFDECFE9FFDDCFEAFFFD0EDBCFB7
:102D9000EFFF020EE15C02E2E16AE552E16EE5520C
:102DA000E7CFD9FF1200D9CFE6FFE1CFD9FF020E5E
:102DB000E126FD0EDB500AE0FE0EEA6ADB34FE0B74
:102DC000EA36E96EB60EE926000E09D0FE0EEA6A72
:102DD000DB34FE0BEA36E96EB00EE926000EEA227D
:102DE000EECFDEFFEDCFDDFFD9CFE9FFDACFEAFF8F
:102DF000EE50ED1003E1F36AF46A44D0DECFE9FF50
:102E0000DDCFEAFF020EE926000EEA22FB0EDBCF41
:102E1000EEFFFC0EDBCFEDFFDECFE9FFDDCFEAFFFB
:102E2000EE52FA0EDBCFEFFF400EDECFE9FFDDCF33
:102E3000EAFFE850EF16880EDECFE9FFDDCFEAFFAC
:102E4000E850EF12FD0EDB500AE0FE0EEA6ADB34BA
:102E5000FE0BEA36E96EB60EE926000E09D0FE0E2C
:102E6000EA6ADB34FE0BEA36E96EB00EE926000EA4
:102E7000EA22EF74DECF10F0DDCF11F010C0F3FFC7
:102E800011C0F4FF020EE15C02E2E16AE552E16E7C
:102E9000E552E7CFD9FF1200D9CFE6FFE1CFD9FF46
:102EA000020EE126FE0EDB5020E1AEC0E9FFAFC00E
:102EB000EAFFEE52080EEF6EAEC0E9FFAFC0EAFFC8
:102EC000020EE926000EEA22300EEE6E020EED6EC4
:102ED000AEC0E9FFAFC0EAFF8C0EEF6EB6C0E9FFEF
:102EE000B7C0EAFF840EEF6E3BD0FD0EDB50E82446
:102EF000126EFE0EDB50040DF3501224040DF3CFBE
:102F000010F0F4CF11F0000E1026020E112210C0A6
:102F1000DEFF11C0DDFF840EDECFE9FFDDCFEAFF6B
:102F2000E850EF12FD0EDB50E824126EFE0EDB506F
:102F3000040DF3501224010F040DF3CF10F0F4CF61
:102F400011F0000E1026020E112210C0DEFF11C07B
:102F5000DDFF840EDECFE9FFDDCFEAFFE850EF12A0
:102F6000020EE15C02E2E16AE552E16EE552E7CF72
:102F7000D9FF1200D9CFE6FFE1CFD9FF64A84ED028
:102F8000FE0EEA6ADB34FE0BEA36E96EB60EE9267F
:102F9000000EEA22EE50EFCFEAFFE96E400EEE1689
:102FA000EE6AEE6AEE6AFE0EEA6ADB34FE0BEA3681
:102FB000E96EB60EE926000EEA22EE50EFCFEAFFE8
:102FC000E96EEE7CFE0EEA6ADB34FE0BEA36E96E51
:102FD000B60EE926000EEA22EF74400E106EFE0EC9
:102FE000EA6ADB34FE0BEA36E96EB60EE926000E1D
:102FF000EA22EE50EFCFEAFFE96E1050EF16FE0E18
:10300000EA6ADB34FE0BEA36E96EB60EE926000EFC
:10301000EA22EE50EFCFEAFFE96EEF7CE552E7CF10
:10302000D9FF1200646A606A0001A86B12000001F7
:10303000A85114E1646A606A160E616E0F019F0E5A
:103040005B6F7B0E606ED08EA284A084F28E64B61D
:1030500002D06486FCD70001010EA86F12000001A7
:10306000D9514DE1010ED96FDA5149E1010EDA6F04
:10307000020EBD5D0DE1B6C0E9FFB7C0EAFFEE523A
:10308000EF6AB6C0E9FFB7C0EAFFC80EEF6E1200E4
:10309000BD0535E1D06BACC0E9FFADC0EAFFEE5233
:1030A000080EEF6EACC0E9FFADC0EAFF020EE926E4
:1030B000000EEA22300EEE6E020EED6EACC0E9FF9D
:1030C000ADC0EAFF840EEF6E010ED06FAEC0E9FF17
:1030D000AFC0EAFFEE52080EEF6EAEC0E9FFAFC020
:1030E000EAFF020EE926000EEA22300EEE6E020E14
:1030F000ED6EAEC0E9FFAFC0EAFF800EEF6E1200CA
:103100000001DB6BDC6B020EBD5D18E1AEC0E9FFB8
:10311000AFC0EAFFEE52080EEF6EAEC0E9FFAFC0DF
:10312000EAFF020EE926000EEA22380EEE6E020ECB
:10313000ED6EAEC0E9FFAFC0EAFF1DD0C151020184
:10314000365D0001C2510201375904E236C2C1F0B6
:1031500037C2C2F0CAD8B6C0E9FFB7C0EAFF020E54
:10316000E926000EEA22380EEE6E020EED6EB6C0B3
:10317000E9FFB7C0EAFFC80EEF6E1200D9CFE6FF35
:10318000E1CFD9FF020EE126000EDE6E020EDD6EEB
:10319000FD0EDB50E824126EFE0EDB50040DF350E2
:1031A0001224040DF4CF11F0D9CFE9FFDACFEAFFF2
:1031B000F350EE261150ED22DECFE9FFDDCFEAFF1E
:1031C000EF9EFD0EDB500AE1FE0EEA6ADB34FE0BD9
:1031D000EA36E96EB00EE926000E09D0FE0EEA6A64
:1031E000DB34FE0BEA36E96EB60EE926000EEA2263
:1031F000DECFEEFFDDCFEDFFDECFE9FFDDCFEAFF73
:10320000EF9CDECFE9FFDDCFEAFF040EE926000EDA
:10321000EA22EF8C020EE15C02E2E16AE552E16E25
:10322000E552E7CFD9FF120064980001C0BF2BD050
:10323000C5AF09D0020EBD6FDC5101E161DF0001B5
:10324000DA6BD96B1200AEC0E9FFAFC0EAFFEE52F5
:10325000080EEF6EAEC0E9FFAFC0EAFF020EE9262E
:10326000000EEA22300EEE6E020EED6EAEC0E9FFE9
:10327000AFC0EAFF8C0EEF6EB6C0E9FFB7C0EAFF41
:10328000840EEF6E1200020130AF0DD00001010E6E
:10329000BD6FDB5101E134DF0001DA6BD96BD8512E
:1032A00023E12FEF18F00001020EBD6FAEC0E9FF61
:1032B000AFC0EAFFEE52080EEF6EAEC0E9FFAFC03E
:1032C000EAFF020EE926000EEA22300EEE6E020E32
:1032D000ED6EAEC0E9FFAFC0EAFF840EEF6EDA6BB1
:1032E000D96BD85101E1BBDE1200D9CFE6FFE1CFA7
:1032F000D9FFE652080EDF6E0001C15D000EC25913
:103300000AE2C1C0DFFFBC5102E1010E03D0BC05DF
:1033100002E1020EBC6FDF50116AE850C15DC16F5F
:103320001150C259C26FB6C0E9FFB7C0EAFFEE52F2
:10333000DFCFEFFF380ECA6F020ECB6FC0B118D0CF
:10334000DF502DE0BEC0F6FFBFC0F7FFBE2B000E62
:10335000BF230800F550E66ECAC0E9FFCBC0EAFF04
:10336000CA2B000ECB23E552E750EF6EDF06E8D7FD
:10337000DF5015E0BEC0E9FFBFC0EAFFBE2B000E64
:10338000BF23EF50E66ECAC0E9FFCBC0EAFFCA2BED
:10339000000ECB23E552E750EF6EDF06E9D7E5528A
:1033A000E552E7CFD9FF1200D9CFE6FFE1CFD9FF31
:1033B000020EE126ACC0E9FFADC0EAFFEE52EFCF4E
:1033C000DFFFDFCF10F010500001C65D000EC759BF
:1033D00002E2C6C0DFFFDF50106E116AE850C65D22
:1033E000C66F1150C759C76F010EDB6ADF50F36E0D
:1033F000010EDBCFF4FFF350F45C16E2010EDB505C
:10340000EA6A380FE96E020EEA22EF50E66EC3C098
:10341000E9FFC4C0EAFFC32B000EC423E552E75006
:10342000EF6E010EDB2AE2D7000ED880C655000EE3
:10343000C75527E2AEC0E9FFAFC0EAFFEE52080E63
:10344000EF6EAEC0E9FFAFC0EAFF020EE926000E44
:10345000EA22380EEE6E020EED6EACC0E9FFADC092
:10346000EAFFEF50400B06E1AEC0E9FFAFC0EAFF54
:10347000C80E05D0AEC0E9FFAFC0EAFF880EEF6E00
:1034800028D0AEC0E9FFAFC0EAFFEE52080EEF6EE3
:10349000AEC0E9FFAFC0EAFF020EE926000EEA2245
:1034A000300EEE6E020EED6EAEC0E9FFAFC0EAFF69
:1034B000840EEF6EC851C91107E005D0C9C0FAFFEC
:1034C0000001C851F96EFADF0001C59FD85101E132
:1034D000C6DD020EE15C02E2E16AE552E16EE55210
:1034E000E7CFD9FF1200D9CFE6FFE1CFD9FFE652EF
:1034F0000001C08F020EE66EE66AE66A540EE66EC2
:103500000F0EE66E95EC1FF0106E050EE15E10508A
:10351000300EE66EE66AE66A000EE66E020EE66EB3
:1035200095EC1FF0106E050EE15E1050648CDF6AA2
:10353000030EDF5C10E2DF50EA6AD10FE96E000E85
:10354000EA22EF6ADF50EA6AD40FE96E000EEA223F
:10355000EF6ADF2AEDD7020EE66EE66AE66AAA0E89
:10356000E66E000EE66E95EC1FF0106E050EE15E45
:103570001050649C0001080EB66F020EB76F000E6B
:10358000AC6F020EAD6FACC0AEF0AF6F32C2A9F03F
:10359000A95102E1100E12D0010EE66EE66AA90EE4
:1035A000E66E000EE66E010EE66EE66A0EEC15F0B3
:1035B000106E060EE15E10500001200EA86FE5525D
:1035C000E552E7CFD9FF1200800E0201305D58E1CD
:1035D0000001C00EC06F02013351030A2FE0010A3F
:1035E00009E0030A4BE100012A0EBE6F3D0EBF6FDA
:1035F000120E3ED03251F66EF76AD890F636F73694
:10360000CF0EF6263D0EF7220900F5CFBEF00A00D8
:10361000F5CFBFF0020E0001F76ABE25F66EBF516E
:10362000F7220800F5CFC1F0030EF76ABE25F66E4B
:10363000BF51F7220800F5CFC2F01200030E325D31
:103640001AE23251F66EF76AD890F636F736D10E96
:10365000F6263D0EF7220900F5CFBEF00A00F5CFA1
:10366000BFF0BEC0F6FFBFC0F7FF0800F550000175
:10367000C16FC26B12000001C06B12000001C06B71
:103680001200D9CFE6FFE1CFD9FF020EE1260201F9
:10369000386B396B30511F0B020A11E0030A0CE042
:1036A000010A3CE10001C08F020138810001CC0514
:1036B00035E10201388332D00001C08F2FD00001E4
:1036C000C08F020134BF0BD034510F0BE96EEA6A90
:1036D000D890E936EA36B00EE926000E0AD0345109
:1036E0000F0BE96EEA6AD890E936EA36B60EE9269B
:1036F000000EEA22EECFDEFFEDCFDDFFDECFE9FFE9
:10370000DDCFEAFFEF50800B09E0DECFE9FFDDCF30
:10371000EAFFEF50040B02E0010E386F0001C0AF6A
:1037200007D0380EBE6F020EBF6FC081020EC16F90
:10373000020EE15C02E2E16AE552E16EE552E7CF9A
:10374000D9FF12000F0153A115D0ACC0E9FFADC0E5
:10375000EAFFEF5080080DE1B6C0E9FFB7C0EAFF0D
:10376000EF50840806E1ACC0E9FFADC0EAFF8C0E63
:10377000EF6E5391629A1200608462986482000135
:10378000010ECD6F000EE66EE66AE66EE66A750E15
:10379000E66EE66A0EEC15F0106E060EE15E105055
:1037A00012000001CD6B000EE66EE66AE66EE66A78
:1037B000740EE66EE66A0EEC15F0106E060EE15E13
:1037C00010506492609462A402D06294FCD71200FC
:1037D000D9CFE6FFE1CFD9FFE65200012D0ED76F1A
:1037E000FD0ECE1553E17E0ECE15E8407F0B040D85
:1037F000F3CFACF0F4CFADF0000EAC27020EAD234A
:10380000ACC0AEF0ADC0AFF0AE75ACC0E9FFADC0BE
:10381000EAFFEF503C0BE842E8420D0835E1DF6A71
:10382000080EDF5C23E2ACC0E9FFADC0EAFF020E88
:10383000E926000EEA22EE50EFCFEAFFE96EEF50E4
:10384000E66EDF50EA6A300FE96E020EEA22E552B8
:10385000E750EF6EACC0E9FFADC0EAFF020EE9260B
:10386000000EEA22EE2AEF22DF2ADAD7ACC0E9FF07
:10387000ADC0EAFF020EE926000EEA22300EEE6E1F
:10388000020EED6E0DD807D03AD805D0FD0ECE153C
:10389000040801E159D8E552E552E7CFD9FF1200FB
:1038A0000001BC6BD86BDB6BDC6BD06BBD6BB6C047
:1038B000E9FFB7C0EAFFEF9EB675B6C0E9FFB7C033
:1038C000EAFFEF9EB675AEC0E9FFAFC0EAFFEF9E1C
:1038D000C06BC16BC26BC56BC66BC76B8FD8000E5C
:1038E000E66EE66AE66EE66A030EE66EE66A0EECE1
:1038F00015F0106E060EE15E105014EF19F0020E76
:103900000001BD5D02E1D4EF19F0BD6BD0511AE1A9
:10391000AEC0E9FFAFC0EAFFEE52080EEF6EAEC0D8
:10392000E9FFAFC0EAFF020EE926000EEA22300EE0
:10393000EE6E020EED6EAEC0E9FFAFC0EAFF8C0E78
:10394000EF6E1200D06B1200D9CFE6FFE1CFD9FFA6
:10395000E652B6C0E9FFB7C0EAFFEF50400B01E006
:10396000010EDF6E0001B675080EA85D0BE132C2D4
:103970005CFF0F015C5103E00001100E02D000015A
:10398000040EA86FBD0526E1B6C0E9FFB7C0EAFF87
:10399000020EE926000EEA22380EEE6E020EED6EE1
:1039A000A4DC020E0001BC5D06E1B6C0E9FFB7C0B1
:1039B000EAFF840E0DD0DF5006E1B6C0E9FFB7C0C4
:1039C000EAFFC80E05D0B6C0E9FFB7C0EAFF880E0F
:1039D000EF6E0FD0C5AF0CD0C851C91107E005D0AC
:1039E000C9C0FAFF0001C851F96EFADF0001C59F96
:1039F000BD6BE552E552E7CFD9FF1200020130510D
:103A0000600BE842E842E842E842E842000901E08F
:103A1000120031510C0A50E00B0A3FE00C0A31E071
:103A2000010A22E00B0A1EE0020A1CE0030A18E069
:103A3000080A10E0010A0CE00F0A08E0030A01E09E
:103A400012000001C08F080EA86F1200E4EF1AF0F8
:103A500073EF1AF00001A90EBE6F000EBF6F0CD0FD
:103A600041EF1BF05DEF1DF034510001BE6FBF6BE5
:103A7000AA0EBE27000EBF23C081010EC16FC08FEA
:103A800012000001C08F02013451EA6AAA0FE96EE8
:103A9000000EEA2232C2EFFF1200000EE66EE66A66
:103AA000E66EE66A020EE66EE66A0EEC15F0106E41
:103AB000060EE15E105012001200D9CFE6FFE1CFF2
:103AC000D9FF050EE1260201320510E130511F0B2E
:103AD00000090CE10001C08F030E0201315D04E119
:103AE0000001010ECC6F02D00001CC6B02013251FB
:103AF00001E011D130511F0B020801E00CD134510B
:103B00000F0B000901E107D134510F0B020801E24C
:103B100002D1200E0001A85D01E0FDD0C08F02019E
:103B200034BF16D034510F0BE96EEA6AD890E936EB
:103B3000EA36B00EE926000EEA22EECFDEFFEDCF28
:103B4000DDFF34510F0BEA6AD40FE96E000E15D079
:103B500034510F0BE96EEA6AD890E936EA36B60EB0
:103B6000E926000EEA22EECFDEFFEDCFDDFF345175
:103B70000F0BEA6AD10FE96E000EEA22020EEFCFB8
:103B8000DBFFD950020FE96EDACFEAFFEF50010BED
:103B900003E1000EDF9401D0DF8434BF0BD0345139
:103BA0000F0BE96EEA6AD890E936EA36B00EE926DC
:103BB000000E0AD034510F0BE96EEA6AD890E9364C
:103BC000EA36B60EE926000EEA22DECFEEFFDDCFA2
:103BD000EDFF030E315D20E1DECFE9FFDDCFEAFF2F
:103BE000EF50800B11E034BF07D034510F0BEA6A5D
:103BF000D40FE96E000E06D034510F0BEA6AD10FD4
:103C0000E96E000EEA22EF82840EDECFE9FFDDCFFF
:103C1000EAFFE850EF127FD0DF74DECFE9FFDDCF9F
:103C2000EAFFEF50800B1BE0DECFE9FFDDCFEAFFBC
:103C3000EF9EDECFE9FFDDCFEAFFEF8C020EE66EEE
:103C4000E66ADECFE6FFDDCFE6FF050EE66EE66A4A
:103C50000EEC15F0106E060EE15E105005D0DECFB2
:103C6000E9FFDDCFEAFFEF8CDF74D950020FE96E78
:103C7000DACFEAFFEF50020B07E1DECFE9FFDDCF3D
:103C8000EAFFEF50800B2BE0020134BF07D0345124
:103C90000F0BEA6AD40FE96E000E06D034510F0BF9
:103CA000EA6AD10FE96E000EEA22EF923B0E106E27
:103CB000DECFE9FFDDCFEAFFE850EF16020EE66E39
:103CC000E66ADECFE6FFDDCFE6FF050EE66EE66ACA
:103CD0000EEC15F0106E060EE15E105007D03B0E94
:103CE000DECFE9FFDDCFEAFFE850EF1602013451E5
:103CF0000F0B116A530F106E0F0E1122030E10C01E
:103D0000DBFF040E11C0DBFF030EDBCFE9FF040E67
:103D1000DBCFEAFFEF90050EE15C02E2E16AE552DB
:0A3D2000E16EE552E7CFD9FF120073
:063D2A001201000202007C
:103D30000008D804AA0000010102000109024300A2
:103D4000020100C032090400000102020100052442
:103D500000100104240202052406000105240100CC
:103D6000010705810308000209040100020A00009E
:103D7000000705020240000007058202400000041F
:103D800003090420034D0061006B0069006E0067A9
:103D90000020004400650076006900630065007340
:103DA0000020002C03430044004300200020005466
:103DB00000430044004500560049004300450020F0
:103DC0000020004C004F0047004700450052003CD7
:073DD0003D7F3D833DA33D53
:083DD8002A0EF66E000EF76ED4
:103DE000000EF86E00010900F550FB6F0900F55058
:103DF000FC6F03E1FB6701D03DD00900F550F66F81
:103E00000900F550F76F0900F550F86F0900090037
:103E1000F550E96E0900F550EA6E09000900090045
:103E2000F550F96F0900F550FA6F09000900F6CF57
:103E3000FDF0F7CFFEF0F8CFFFF0F6C0F6FFF7C0C9
:103E4000F7FFF8C0F8FF0001F95302E1FA5307E069
:103E50000900F550EE6EF907F8E2FA07F9D7FDC050
:103E6000F6FFFEC0F7FFFFC0F8FF0001FB07000EE2
:063E7000FC5BBFD712004D
:0A3E7600D9CFE6FFDACFE6FFE1CF77
:103E8000D9FFE2CFDAFF3F0EC716C66AFD0EDB5040
:103E9000C612FB0EDB50C712FC0EDB50030A09E012
:103EA000010A04E0020A06E1C78C04D0C78CC68868
:103EB00001D0C688FD0EDB50050A05E0010A05E1C8
:103EC000938C948C03D0938C01D0939C949E938874
:0E3ED000C68AE552E5CFDAFFE7CFD9FF120030
:023EDE00006A78
:103EE0000EAE78EF1FF00D6C0E1EE86A0E22001E5B
:103EF00009AE80EF1FF0086C091EE86A0922001E57
:103F0000C6EC1FF009BE90EF1FF000AE000C086C6D
:103F1000091EE86A0922046C051EE86A0522000CE5
:0A3F200000BE87EF1FF00188FF0CC0
:063F2A00FE0EE3CFE9FFEB
:103F3000FF0EE3CFEAFFE9CFF3FFEACFF4FFFB0E7A
:103F4000E35003E1FC0EE35009E0FB0EE30602E25E
:0E3F5000FC0EE306FD0EE350EE6EF1D71200FC
:023F5E00D9CFB9
:103F6000E6FFDACFE6FFE1CFD9FFE2CFDAFFE65294
:103F7000C950DF6E9E96C96A9EA6FED7C950E5520B
:0C3F8000E552E5CFDAFFE7CFD9FF1200D1
:043F8C00056A046A54
:103F9000100EE76ED89008360936043605360D50F7
:103FA000045C0E50055805E30D50045E0E50055A92
:083FB000082AE72EF0D71200E9
:083FB800000EF36E00EE00F0B4
:103FC000030E01D81200EA6002D0EE6AFCD7F3506B
:083FD000E9601200EE6AFCD763
:083FD80011EE00F021EE00F0F3
:103FE000F86A019CECEC1EF003EC00F02EEC09F0FA
:043FF000FBD71200E9
:020000040030CA
:0100000000FF
:0100010032CC
:0100020003FA
:010003001EDE
:0100050000FA
:010006008178
:0100080003F4
:01000900C036
:01000A0003F2
:01000B00E014
:01000C0003F0
:01000D0040B2
:00000001FF
