:020000040000FA
:06000000B9EF05F012004B
:020006001200E6
:0600080024EF00F01200DD
:0600180028EF00F01200C9
:06002A0001008E0B000036
:08003000600000004800000020
:06004000B9EF05F012000B
:02004600FFFFBA
:0600480000EF08F01200B9
:0600500041EF09F012006F
:020056000201A5
:08005800020130511F0B0108E9
:1000600001E012003051600BE842E842E842E84209
:10007000E842010801E01200345103E0340501E0D8
:1000800012003151220A31E0030A24E0010A15E08E
:10009000210A0DE0010A01E012000001EE0EBE6F20
:1000A000000EBF6F080EC16FC26BC08121D000016E
:1000B000EE0EBE6F000EBF6F1BD036C2C6F037C249
:1000C000C7F00001C00EC36F020EC46FC86BC96BCE
:1000D000C58F12000001C00EBE6F020EBF6F070E6B
:1000E000C16FC26BC10EC06F120032C2E9F00001D5
:1000F000C08F12000201C06B4B0EC16FC26BC36B8D
:10010000C46BC56B080EC66F0001DD6B1A0EE66E80
:10011000010EE66EFCEC17F0E552E5521E0EE66E9F
:10012000020EE66EFCEC17F0E552E552400EE66E6C
:10013000800EE66E020EE66EE66A020EE66E33ECA6
:1001400018F0146E050EE15E1450F3CFE5F0F4CF15
:10015000E6F00001E76BE86BDE6B1200D9CFE6FF3B
:10016000E1CFD9FFFD0EDBCF08F0FE0EDBCF09F0AB
:10017000050E081801E1095002E0000E30D0FB0E18
:10018000DBCF14F0FC0EDBCF15F00001E5511418A5
:1001900016E1E651151813E1400EE66E800EE66E8C
:1001A000020EE66EE66A020EE66E33EC18F0146E8E
:1001B000050EE15E1450F3CFE5F0F4CFE6F0FB0E50
:1001C000DBCF14F0FC0EDBCF15F00001E751141863
:1001D00005E1E851151802E1DE6BE36B010EE55213
:1001E000E7CFD9FF1200D9CFE6FFE1CFD9FF000159
:1001F000DD6BE551E61102E1000E08D0E5C0E9FF34
:10020000E6C0EAFFEF50800B01E0010E000945E176
:10021000FC0EDBCF14F0E5C0E9FFE6C0EAFFEE52CA
:10022000EF50D880145408E2E5C0E9FFE6C0EAFFC9
:10023000EE52FC0EEFCFDBFFDD6BFC0EDB50DD5D25
:1002400019E2DD51EA6A800FE96E020EEA22EF50F0
:10025000E66EDD51E76EFD0EDBCFE9FFFE0EDBCF74
:10026000EAFFE750E926000EEA22E552E750EF6E7A
:10027000DD2BE3D7400EE66E800EE66E020EE66ED4
:10028000E66A020EE66E33EC18F0146E050EE15EBF
:100290001450F3CFE5F0F4CFE6F00001DD51E55264
:1002A000E7CFD9FF1200D9CFE6FFE1CFD9FFA09465
:1002B0000001DE510CE1FD0EDBCFDFF0FE0EDBCFE7
:1002C000E0F0FC0EDBCFE3F0010EE46FDE6FA08404
:1002D000E552E7CFD9FF1200D9CFE6FFE1CFD9FF32
:1002E000030EE126A0940001DE512DE1DF6AFD0E30
:1002F000DBCF08F0FE0EDBCF09F0DE5208C0DEFFD8
:1003000009C0DDFFDD52DF2ADF50146E156AFF0ED3
:10031000141802E115500BE0010EDBCFE9FFDB2AD8
:10032000020EDBCFEAFF01E3DB2AEF50ECE1FD0E2A
:10033000DBCFDFF0FE0EDBCFE0F0DFCFE3F000013C
:10034000010EE46FDE6FA084030EE15C02E2E16A5D
:10035000E552E16EE552E7CFD9FF1200D9CFE6FFB3
:10036000E1CFD9FF030EE126A0940001DE512EE17A
:10037000DF6AFD0EDBCF08F0FE0EDBCF09F0DE52A8
:1003800008C0DEFF09C0DDFFDD52DF2ADF50146E3A
:10039000156AFF0E141802E115500CE0010EDBCFB8
:1003A000F6FFDB2A020EDBCFF7FF01E3DB2A0800B2
:1003B000F550EBE1FD0EDBCFDFF0FE0EDBCFE0F022
:1003C000DFCFE3F00001E46B010EDE6FA084030ECB
:1003D000E15C02E2E16AE552E16EE552E7CFD9FF66
:1003E0001200D9CFE6FFE1CFD9FF020EE126A0949B
:1003F0000001E751E81102E1000E08D0E7C0E9FF73
:10040000E8C0EAFFEF50800B01E0010E000906E1B1
:10041000030EDE5D01E1DE6BDE5102E1A0847ED0E1
:10042000020EDE5D16E1E66A000EE66EE66A010E79
:10043000E66E020EE66E33EC18F0146E050EE15E09
:100440001450F3CFE7F0F4CFE8F00001030EDE6FB5
:1004500064D0DE0562E1400E146E156AE351145C4F
:10046000000E155803E2400EDF6E02D0E3C0DFFF3E
:10047000DF50E35DE36F400EE16F020EE26F010EAD
:10048000DFCFDBFFE45116E1010EDB5028E0DFC0D7
:10049000F6FFE0C0F7FF0800F550E1C0E9FFE2C059
:1004A000EAFFEF6EE12B000EE223DF2BE023010ECB
:1004B000DB06EAD7010EDB5012E0DFC0E9FFE0C047
:1004C000EAFFEF50E1C0E9FFE2C0EAFFEF6EE12B87
:1004D000000EE223DF2BE023010EDB06EBD7000149
:1004E000E35107E1400EDF5C02E1020E01D0030E92
:1004F000DE6FDFCFE6FF400EE66E020EE66E010E07
:10050000E66E020EE66E33EC18F0146E050EE15E38
:100510001450F3CFE7F0F4CFE8F0A084020EE15CD2
:1005200002E2E16AE552E16EE552E7CFD9FF12003F
:10053000019E05D0019E09AE02D0096C018E09C052
:1005400003F0026A136A126A860E046E056A1EEFD1
:1005500004F00F7E016A5AEC04F072EC04F001B66C
:1005600002EF04F001A20AD001AA03D001BE02EFFB
:1005700004F001A40EEF04F00BEF04F001AA05D083
:1005800001AC0EEF04F00BEF04F001A00AD001A8BB
:1005900008D001BE04D001A402D017EF04F01BEF75
:1005A00004F0126A056A0F500A5C116E10E307C06E
:1005B00013F008C002F009C003F00AC010F00CC02C
:1005C00007F00DC008F00EC009F0013A09D00CC0C8
:1005D00013F00DC002F00EC003F00FC010F0116C4C
:1005E000019E01BC018E10C004F001B04AEF04F07E
:1005F0001A0E11604AEF04F0046A0A6A01A408D0D6
:10060000076C081E091E0A1EE86A082209220A222F
:1006100001AC08D0136C021E031E041EE86A0222FD
:1006200003220422066A115207E00A340932083212
:1006300007320632112EF9D707501326085002222E
:10064000095003220A50042206C012F0019E04AE93
:100650000BD0126C131E021E031E041EE86A132226
:10066000022203220422018E04A006D0D880033285
:10067000023213321232102A10C004F01EEF04F0BE
:10068000016A5AEC04F072EC04F001B602EF04F0D7
:1006900001A205D001B802EF04F009EF04F001AAAD
:1006A00005D001B002EF04F009EF04F001B002D070
:1006B00001A802D015EF04F0056A0F500A24046E59
:1006C000E86A05227E0E045EE86A055A126A136A19
:1006D000026A036A0E500902F4CF03F0F3CF02F06E
:1006E0000D500902F3501326F4500222000E03228B
:1006F0000E500802F3501326F4500222000E03227B
:100700000C500902F3501226F4501322000E02225C
:1007100003220D500802F3501226F4501322000E4B
:10072000022203220E500702F3501226F450132225
:10073000000E022203220C500802F4501226000E72
:100740001322022203220D500702F4501226000E3B
:100750001322022203221EEF04F0006A0EAEB6EF4F
:1007600003F00D6C0E1EE86A0E22001E09AEBEEFED
:1007700003F0086C091EE86A0922001E93EC05F0DC
:1007800009BECEEF03F000AE000C086C091EE86A4B
:100790000922046C051EE86A0522000C00BEC5EFA4
:1007A00003F00188FF0C016A5AEC04F001B6DDEF9A
:1007B00003F001A20ED001B405D07F0E096EFF0E2A
:1007C000086E1FD0800E096E086A1BD0096A086A7D
:1007D00018D001B0FBD78F0E0A60EDD77E0E0A64E9
:1007E000F5D78E0E0A5C05E0D890093208320A2A45
:1007F000F8D701A406D0086C091EE86A092209AEE0
:10080000E5D712007F0E0A6EFF0E096E086E076EA6
:1008100012007F0E01BEFF0E0A6E02D07F0E0A6E1E
:10082000800E096E086A076AF3D701AE04D0800E05
:100830000A6E096AF7D70A6A096AF4D703500210E8
:1008400013101210F8E005BEF0D703BE0CD0045010
:100850000510EBE0D8901236133602360336040644
:10086000D8A00506F2D70550D4E10428D2E012AE94
:1008700011D07F0E121402E113A00CD0132AE86AE3
:100880000222032207E3D880033202321332042A01
:100890000428BFE00450C9E013C007F002C008F00C
:1008A0000334096E04300A6E09320A9E01BE0A8EB4
:1008B00008EF04F009360A3602E30184017E06E1FE
:1008C00001800A6A096A086A076A12000A2803E0B6
:1008D000D88009321200D890093202E10182120058
:1008E000018612000E360F3602E3018C017E06E10E
:1008F00001880F6A0E6A0D6A0C6A12000F2803E065
:10090000D8800E321200D8900E32EAE1018A12002D
:100910001201000202000008D804AA00000101022E
:10092000000109024300020100C032090400000175
:10093000020201000524001001042402020524061D
:1009400000010524010001070581030800020904D4
:100950000100020A0000000705020240000007052E
:1009600082024000000403090420034D0061006B73
:100970000069006E00670020004400650076006991
:100980000063006500730020002C03430044004313
:100990000020002000540043004400450056004958
:1009A0000043004500200020004C004F0047004756
:0D09B0000045005200220965096909890906
:0209BE002A0EFF
:1009C000F66E000EF76E000EF86E00010900F5508D
:1009D000FB6F0900F550FC6F03E1FB6701D03DD0D0
:1009E0000900F550F66F0900F550F76F0900F55052
:1009F000F86F09000900F550E96E0900F550EA6E3C
:100A0000090009000900F550F96F0900F550FA6F67
:100A100009000900F6CFFDF0F7CFFEF0F8CFFFF0A8
:100A2000F6C0F6FFF7C0F7FFF8C0F8FF0001F95372
:100A300002E1FA5307E00900F550EE6EF907F8E21B
:100A4000FA07F9D7FDC0F6FFFEC0F7FFFFC0F8FFB9
:0C0A50000001FB07000EFC5BBFD712008A
:040A5C00D9CFE6FF09
:100A6000DACFE6FFE1CFD9FFE2CFDAFF3F0EC716BC
:100A7000C66AFD0EDB50C612FB0EDB50C712FC0E21
:100A8000DB50030A09E0010A04E0020A06E1C78C10
:100A900004D0C78CC68801D0C688FD0EDB50050A7D
:100AA00005E0010A05E1938C948C03D0938C01D06E
:100AB000939C949E9388C68AE552E5CFDAFFE7CFF0
:040AC000D9FF120048
:0C0AC400FE0EE3CFE9FFFF0EE3CFEAFFD8
:100AD000E9CFF3FFEACFF4FFFB0EE35003E1FC0E96
:100AE000E35009E0FB0EE30602E2FC0EE306FD0E16
:080AF000E350EE6EF1D7120095
:080AF800D9CFE6FFDACFE6FFDB
:100B0000E1CFD9FFE2CFDAFFE652C950DF6E9E9601
:100B1000C96A9EA6FED7C950E552E552E5CFDAFF75
:060B2000E7CFD9FF12002F
:0A0B2600056A046A100EE76ED8900D
:100B300008360936043605360D50045C0E5005584B
:100B400005E30D50045E0E50055A082AE72EF0D733
:020B5000120091
:0E0B5200000EF36E00EE00F0030E01D812004C
:100B6000EA6002D0EE6AFCD7F350E9601200EE6A48
:020B7000FCD7B0
:0E0B720011EE00F021EE00F0F86A019CDFECBD
:0E0B800004F003EC00F067EC09F0FBD7120064
:020B8E00004322
:100B90004443205443204C4F474745522044455638
:100BA000494345204259204D414B494E4720444539
:100BB00056494345532048573A312E326220465712
:100BC0003A312E30320A0000000000000000000020
:060BD0000000000000001F
:10100000DACFE4FFE2CFDAFFE9CFE4FFEACFE4FF93
:10101000F6CFE4FFF7CFE4FFF5CFE4FFF3CFE4FF33
:10102000F4CFE4FFFACFE4FF00EE00F0140EE80482
:1010300003E3EECFE4FFFBD700EE14F00D0EE8045F
:1010400003E3EECFE4FFFBD7E65248EC17F0F2A43F
:10105000F4D0500ED76E380ED66EF294000198512F
:1010600001E076D08B927CEC05F00101DA6F7CEC2C
:1010700005F00101DB6F7CEC05F00101DC6F7CEC1D
:1010800005F00101DD6F8B820001010E986F0101F7
:10109000ED6BEE6B040EEEAF02D0D89003D0ED5D99
:1010A000000EEE591DE2DA0EED25E96E010EEE217D
:1010B000EA6EEF5011E0DA0EED25E96E010EEE2139
:1010C000EA6EEF50E66EE20EED25E96E010EEE21BE
:1010D000EA6EE552E750EF6EED2B000EEE23DAD705
:1010E000020E0001E76E9919E8AE02D0E73402D093
:1010F000E750995D26E2070E0101DD15216E000E15
:10110000E76E2118E8AE02D0213403D0E750D88032
:1011100021540EE3010EDB15226E000EE76E22183D
:10112000E8AE02D0223403D0E750D880225405E242
:101130008B840001010E996F80D08B940001996B14
:101140007CD0020E995D02E18B8477D08B9475D0B0
:101150008B907CEC05F00101DE6F7CEC05F0010169
:10116000DF6F7CEC05F00101E06F7CEC05F0010124
:10117000E16F8B800001986B040E0101ED6FEE6B47
:10118000080EEEAF02D0D89003D0ED5D000EEE5900
:101190001DE2DA0EED25E96E010EEE21EA6EEF504A
:1011A00011E0DA0EED25E96E010EEE21EA6EEF5048
:1011B000E66EE20EED25E96E010EEE21EA6EE552D5
:1011C000E750EF6EED2B000EEE23DAD7020E000192
:1011D000E76E9A19E8AE02D0E73402D0E7509A5D84
:1011E00026E2070E0101E115216E000EE76E2118BF
:1011F000E8AE02D0213403D0E750D88021540EE36A
:10120000010EDF15226E000EE76E2218E8AE02D046
:10121000223403D0E750D880225405E28B860001A7
:10122000010E9A6F0AD08B9600019A6B06D0020EBF
:101230009A5D02E18B8601D08B96E55200EE20F09C
:101240000D0EE80403E3E5CFEDFFFBD700EE13F04E
:10125000140EE80403E3E5CFEDFFFBD7E5CFFAFF7B
:10126000E5CFF4FFE5CFF3FFE5CFF5FFE5CFF7FFDF
:10127000E5CFF6FFE5CFEAFFE5CFE9FFE5CFDAFFFF
:101280001100D8CFE4FFE0CFE4FFE46EDACFE4FF53
:10129000E652E552E5CFDAFFE550E5CFE0FFE5CFD6
:1012A000D8FF1000D59CD59AD596D594D582D580F7
:1012B000500ED76E380ED66ED58ED08EF28CF28E42
:1012C000F28AF28AF184F294D58EF28E120059ECF1
:1012D0000EF0E8DF946A8B808B823F0E936E7F94D2
:1012E000800EE66EE66A010EE66E2EEC05F0E55223
:1012F000E552E5520001A85102E177EC19F07BECD0
:1013000010F0F8D7D9CFE6FFE1CFD9FF00019B6BF2
:101310009C6B9D6B9E6BFC0EDB041AE1FE0EDB509A
:10132000010B010803E19B6B9C6B08D0FE0EDB50A8
:10133000020B020805E19B6B800E9C6F960E11D08C
:10134000FE0EDB50040B04084EE19B6B9C6B08D037
:10135000FE0EDB50010B010808E19B6B800E9C6FB9
:10136000970E9D6FC30E9E6FDDD2100EF36EFC0EB6
:10137000F3CFDBFFFE0EDB50040B040818E10C6A10
:101380000D6A800E0E6E3E0E0F6E9BC007F09CC065
:1013900008F09DC009F09EC00AF0AAEC02F007C058
:1013A0009BF008C09CF009C09DF00AC09EF0FE0EA4
:1013B000DB50080B080817E10C6A0D6A0E6A3F0E35
:1013C0000F6E9BC007F09CC008F09DC009F09EC046
:1013D0000AF0AAEC02F007C09BF008C09CF009C01C
:1013E0009DF00AC09EF0FE0EDB50100B100849E184
:1013F000186A196A800E1A6E3D0E1B6EFC0EDBCF4A
:1014000020F020C009F09AEC02F007C01CF008C0E0
:101410001DF009C01EF00AC01FF007C00CF008C084
:101420000DF009C00EF00AC00FF018C007F019C087
:1014300008F01AC009F01BC00AF040EC03F007C026
:1014400014F008C015F009C016F00AC017F007C064
:101450000CF008C00DF009C00EF00AC00FF09BC0E0
:1014600007F09CC008F09DC009F09EC00AF0AAECED
:1014700002F007C09BF008C09CF009C09DF00AC0B4
:101480009EF0FE0EDB50200B200848E1186A196A16
:101490001A6A3E0E1B6EFC0EDBCF20F020C009F056
:1014A0009AEC02F007C01CF008C01DF009C01EF045
:1014B0000AC01FF007C00CF008C00DF009C00EF004
:1014C0000AC00FF018C007F019C008F01AC009F0E0
:1014D0001BC00AF040EC03F007C014F008C015F080
:1014E00009C016F00AC017F007C00CF008C00DF0D4
:1014F00009C00EF00AC00FF09BC007F09CC008F0B6
:101500009DC009F09EC00AF0AAEC02F007C09BF053
:1015100008C09CF009C09DF00AC09EF0FE0EDB5092
:10152000400B400849E1186A196A800E1A6E3E0E97
:101530001B6EFC0EDBCF20F020C009F09AEC02F00D
:1015400007C01CF008C01DF009C01EF00AC01FF043
:1015500007C00CF008C00DF009C00EF00AC00FF073
:1015600018C007F019C008F01AC009F01BC00AF033
:1015700040EC03F007C014F008C015F009C016F0E5
:101580000AC017F007C00CF008C00DF009C00EF03B
:101590000AC00FF09BC007F09CC008F09DC009F086
:1015A0009EC00AF0AAEC02F007C09BF008C09CF0B5
:1015B00009C09DF00AC09EF0FE0EDB50800B800833
:1015C00048E1186A196A1A6A3F0E1B6EFC0EDBCFDF
:1015D00020F020C009F09AEC02F007C01CF008C00F
:1015E0001DF009C01EF00AC01FF007C00CF008C0B3
:1015F0000DF009C00EF00AC00FF018C007F019C0B6
:1016000008F01AC009F01BC00AF040EC03F007C054
:1016100014F008C015F009C016F00AC017F007C092
:101620000CF008C00DF009C00EF00AC00FF09BC00E
:1016300007F09CC008F09DC009F09EC00AF0AAEC1B
:1016400002F007C09BF008C09CF009C09DF00AC0E2
:101650009EF0FD0EDB50010B010829E1FC0EDBCFF3
:1016600018F018C009F09AEC02F007C014F008C096
:1016700015F009C016F00AC017F007C00CF008C03A
:101680000DF009C00EF00AC00FF09BC007F09CC01F
:1016900008F09DC009F09EC00AF0AAEC02F007C055
:1016A0009BF008C09CF009C09DF00AC09EF0FD0EA2
:1016B000DB50020B020829E1FC0EDB50E824186E17
:1016C000096E9AEC02F007C014F008C015F009C0CA
:1016D00016F00AC017F007C00CF008C00DF009C0E2
:1016E0000EF00AC00FF09BC007F09CC008F09DC030
:1016F00009F09EC00AF0AAEC02F007C09BF008C0F7
:101700009CF009C09DF00AC09EF0FD0EDB50040B5A
:1017100004082BE1FC0EDB50040DF3CF18F0F3CFDF
:1017200009F09AEC02F007C014F008C015F009C0E7
:1017300016F00AC017F007C00CF008C00DF009C081
:101740000EF00AC00FF09BC007F09CC008F09DC0CF
:1017500009F09EC00AF0AAEC02F007C09BF008C096
:101760009CF009C09DF00AC09EF0FD0EDB50080BF6
:1017700008082BE1FC0EDB50080DF3CF18F0F3CF77
:1017800009F09AEC02F007C014F008C015F009C087
:1017900016F00AC017F007C00CF008C00DF009C021
:1017A0000EF00AC00FF09BC007F09CC008F09DC06F
:1017B00009F09EC00AF0AAEC02F007C09BF008C036
:1017C0009CF009C09DF00AC09EF0FD0EDB50100B8E
:1017D00010082BE1FC0EDB50100DF3CF18F0F3CF07
:1017E00009F09AEC02F007C014F008C015F009C027
:1017F00016F00AC017F007C00CF008C00DF009C0C1
:101800000EF00AC00FF09BC007F09CC008F09DC00E
:1018100009F09EC00AF0AAEC02F007C09BF008C0D5
:101820009CF009C09DF00AC09EF0FD0EDB50200B1D
:1018300020082BE1FC0EDB50200DF3CF18F0F3CF86
:1018400009F09AEC02F007C014F008C015F009C0C6
:1018500016F00AC017F007C00CF008C00DF009C060
:101860000EF00AC00FF09BC007F09CC008F09DC0AE
:1018700009F09EC00AF0AAEC02F007C09BF008C075
:101880009CF009C09DF00AC09EF0FD0EDB50400B9D
:1018900040082BE1FC0EDB50400DF3CF18F0F3CFE6
:1018A00009F09AEC02F007C014F008C015F009C066
:1018B00016F00AC017F007C00CF008C00DF009C000
:1018C0000EF00AC00FF09BC007F09CC008F09DC04E
:1018D00009F09EC00AF0AAEC02F007C09BF008C015
:1018E0009CF009C09DF00AC09EF0FD0EDB50800BFD
:1018F000800818E10C6A0D6A800E0E6EBF0E0F6E26
:101900009BC007F09CC008F09DC009F09EC00AF083
:1019100040EC03F007C09BF008C09CF009C09DF0AC
:101920000AC09EF0E552E7CFD9FF1200D9CFE6FFFB
:10193000E1CFD9FF030EE126020EDB6A0101EB6B5A
:10194000EC6B0C6A0D6AC80E0E6E420E0F6E9BC0D9
:1019500007F09CC008F09DC009F09EC00AF040EC62
:1019600003F0D3EC03F008C0EDF109C0EEF1FD0E79
:10197000DBCFDEFFDBCFDDFF0101085009102DE1D9
:10198000DFCFE9FFDF2A010EDBCFEAFF01E3DB2A2D
:10199000300EEF6EDFCFE9FFDF2A010EDBCFEAFF6B
:1019A00001E3DB2A2E0EEF6EDFCFE9FFDF2A010E07
:1019B000DBCFEAFF01E3DB2A300EEF6EDFCFE9FF7A
:1019C000DF2A010EDBCFEAFF01E3DB2A300EEF6EE8
:1019D000DECFE9FFDDCFEAFF5DD1800EEE1514E02A
:1019E000FD0EDBCFE9FFDB2AFE0EDBCFEAFF01E3D2
:1019F000DB2A2B0EEF6EFD0EDBCFDEFFDBCFDDFF34
:101A0000ED6DEE1F000EEE230101ED51EE1130E001
:101A1000020EDB2AEDC1EBF1EEC1ECF10A0E0D6E08
:101A20000E6AEDC108F0EEC109F0ADEC03F004C0A0
:101A3000EBF105C0ECF1300E01010424E66EDFCFBE
:101A4000E9FFDF2A010EDBCFEAFF01E3DB2AE552E3
:101A5000E750EF6E0A0E0D6E0E6AEDC108F0EEC192
:101A600009F0ADEC03F008C0EDF109C0EEF1CCD700
:101A7000EB6BEC6B020EDB50FE0BE842EB5D65E2BC
:101A8000EB51E76EFD0EDBCFE9FFFE0EDBCFEAFF89
:101A9000E750E926000EEA22EF50E66E020EDB5018
:101AA000E76EFD0EDBCFE9FFFE0EDBCFEAFFE7506E
:101AB000E926000EEA22E552E750EF6E020EDB50F7
:101AC000D880EB55FF0FE76EFD0EDBCFE9FFFE0E72
:101AD000DBCFEAFFE750E926000EEA22EF50E66E80
:101AE000EB51E76EFD0EDBCFE9FFFE0EDBCFEAFF29
:101AF000E750E926000EEA22E552E750EF6E020EAB
:101B0000DB50E76EFD0EDBCFE9FFFE0EDBCFEAFF19
:101B1000E750E926000EEA22EF50E66E020EDB5097
:101B2000D880EB55FF0FE76EFD0EDBCFE9FFFE0E11
:101B3000DBCFEAFFE750E926000EEA22E552E75044
:101B4000EF6EEB2B000EEC2395D7020EDB0441E188
:101B5000FD0EDBCFE9FFFE0EDBCFEAFFEF50E66EB6
:101B6000030EE76EFD0EDBCFE9FFFE0EDBCFEAFFD3
:101B7000E750E926000EEA22E552E750EF6EFD0E2F
:101B8000DBCFE9FFFE0EDBCFEAFF300EEF6E010E7A
:101B9000E76EFD0EDBCFE9FFFE0EDBCFEAFFE7507D
:101BA000E926000EEA222E0EEF6E020EE76EFD0E03
:101BB000DBCFE9FFFE0EDBCFEAFFE750E926000EA0
:101BC000EA22300EEF6EDECFE9FFDDCFEAFF030E33
:101BD0005ED0020EDB50E76EFD0EDBCFE9FFFE0E9E
:101BE000DBCFEAFFE750E926000EEA22E906EA5ACF
:101BF000EF50E66E020EDB50E76EFD0EDBCFE9FF25
:101C0000FE0EDBCFEAFFE750E926000EEA22E5529E
:101C1000E750EF6E020EDB50E76EFD0EDBCFE9FF03
:101C2000FE0EDBCFEAFFE750E926000EEA22020EA5
:101C3000E95E000EEA5AEF50E66E020EDB50E76EE8
:101C4000FD0EDBCFE9FFFE0EDBCFEAFFE750E92612
:101C5000000EEA22E906EA5AE552E750EF6E020E5C
:101C6000DB50E76EFD0EDBCFE9FFFE0EDBCFEAFFB8
:101C7000E750E926000EEA22020EE95E000EEA5A5B
:101C80002E0EEF6EDECFE9FFDDCFEAFF020EE92672
:101C9000000EEA22EF6A020EDB28146E030EE15CEE
:101CA00002E2E16AE552E16E1450E552E7CFD9FF56
:101CB000120002D8B8EF16F01200D9CFE6FFE1CF3C
:101CC000D9FF630E0001A05D0CE1FE0EDBCFE6FF45
:101CD000700EE66E010EE66E53EC01F0E552E55231
:101CE000E5520001090E9F6FE552E7CFD9FF1200C0
:101CF00091C170F192C171F193C172F194C173F10C
:101D000095C174F196C175F11200D9CFE6FFE1CF0C
:101D1000D9FF0101ED6BEE6B1E0EEEAF02D0D89035
:101D200003D0ED5D000EEE5915E2FD0EDB50ED2502
:101D30000F01E96EFE0EDB500101EE210F01EA6E8C
:101D4000EF500A0807E0EDC1A6F00101ED2B000EEF
:101D5000EE23E2D70101ED6BEE6B1E0EEEAF02D06B
:101D6000D89003D0ED5D000EEE5915E2FB0EDB506E
:101D7000ED250F01E96EFC0EDB500101EE210F0194
:101D8000EA6EEF500A0807E0EDC1A7F00101ED2B64
:101D9000000EEE23E2D70101ED6BEE6B0001A651C0
:101DA000A725146E156A14BE15680101EE511518A9
:101DB000E8AE02D0153404D01450ED5D1550EE5944
:101DC00031E2A6C014F0156A14BE15681550EE195C
:101DD000E8AE02D0EE3504D0ED51145CEE5115584A
:101DE0001CE2FB0EDB50ED250F01E96EFC0EDB5013
:101DF0000101EE210F01EA6EEF50E66EFD0EDB50A1
:101E00000101ED250F01E96EFE0EDB500101EE210F
:101E10000F01EA6EE552E750EF6E0101ED2B000E67
:101E2000EE23BCD70001A629146E156A14BE1568EE
:101E3000FD0EDB501424E96EFE0EDB501520EA6E19
:101E40002C0EEF6E020EA6250101ED6FEE6B800BDE
:101E500001E0EE690001A651A725030F146E156A73
:101E600014BE15680101EE511518E8AE02D0153404
:101E700004D01450ED5D1550EE592BE2020E000116
:101E8000A625166E176A16BE176801011650ED5D7D
:101E9000146E1750EE59156EFB0EDB501424E96ECC
:101EA000FC0EDB501520EA6EEF50E66EFD0EDB50A7
:101EB000ED250F01E96EFE0EDB500101EE210F0151
:101EC000EA6EE552E750EF6E0101ED2B000EEE23B6
:101ED000C1D70001A651A725030F146E156A14BEC1
:101EE0001568FD0EDB501424E96EFE0EDB50152044
:101EF000EA6E0A0EEF6EA651A725040F0101EA6FE4
:101F0000E552E7CFD9FF120000019F51090A01E114
:101F10008ED00F0A01E17FD0030A72E0060A64E066
:101F2000010A56E0030A47E0010A01E01200A4C0DA
:101F3000E6FFA3C0E9FFEA6AE9BEEA68E20EE92625
:101F4000010EEA22EF50E66EA2C0E9FFEA6AE9BE9E
:101F5000EA68E20EE926010EEA22EF50E66E82EC14
:101F600009F0E552E552E552910EE66E010EE66E7D
:101F7000DDDCE552E5520101EA6F000160050FE189
:101F8000B7DE0101EA51EA2BE96EEA6AE9BEEA68C6
:101F9000700EE926010EEA220A0EEF6E6AD0EAC13F
:101FA000E9FFEA6AE9BEEA68910EE926010EEA2233
:101FB0000A0EEF6E51D0600507E191C170F1010189
:101FC0000A0E716F020E3ED001010A0E926F44D0CC
:101FD000600506E18DDE01010A0E746F050E32D038
:101FE00001010A0E956F38D0600506E181DE01011E
:101FF0000A0E766F070E26D001010A0E976F2CD0BD
:10200000370EE66E610EE66E000EE66E53EC01F0E2
:10201000E552E55231D0600506E16ADE01010A0EA3
:10202000756F060E0FD001010A0E966F15D0600570
:102030000BE10101450E706F720E716F726F0A0E27
:10204000736F040EE66E17D00101450E916F720E8C
:10205000926F936F0A0E946F910EE66E010EE66E0C
:10206000700EE66E010EE66E50DEE552E552E55268
:10207000E552EAC1E6FF21DEE5521200D9CFE6FFC4
:10208000E1CFD9FF0001602BFE0EDBCFE9FFEA6A4A
:10209000E9BEEA689A0EE926010EEA22EF500A0824
:1020A00002E1630E23D0FE0EDBCFE9FFEA6AE9BE50
:1020B000EA689A0EE926010EEA22EF503B0817E182
:1020C000FE0EDB28E96EEA6AE9BEEA689A0EE926A6
:1020D000010EEA22EF503A0807E1FE0EDB28A16F5D
:1020E000A06B010EA56F03D0FE0EDB28A06FE5529A
:1020F000E7CFD9FF1200D9CFE6FFE1CFD9FFE652F3
:10210000200E0001E76EA819E8AE02D0E73402D035
:10211000E750A85D02E23CEF16F06450020B02E0CB
:102120003CEF16F00001DE5102E03AEF16F0400EEF
:10213000E66E9A0EE66E010EE66EF3EC00F0E552E6
:10214000E552E552DF6EDF5002E13AEF16F0DF5064
:102150000001A05D02E337EF16F0090E9F6FA1C0EA
:10216000E9FFEA6AE9BEEA689A0EE926010EEA2268
:10217000EF503A0801E07BD1A129E96EEA6AE9BE95
:10218000EA689A0EE926010EEA22EF504D0801E0B6
:102190006ED1020EA125E96EEA6AE9BEEA689A0EDE
:1021A000E926010EEA22EF50450801E060D1030E56
:1021B000A125E96EEA6AE9BEEA689A0EE926010EEF
:1021C000EA22EF50410801E052D1040EA125E96E48
:1021D000EA6AE9BEEA689A0EE926010EEA22EF50A1
:1021E000530801E044D1050EA125E96EEA6AE9BE73
:1021F000EA689A0EE926010EEA22EF503A0801E059
:1022000036D10101ED6BEE6B020EEEAF02D0D8902D
:1022100003D0ED5D000EEE5901E329D1040EEF6FFE
:10222000ED51EE1104E1310EF06FEF6B02D0320E82
:10223000F06F060E0001A125E96EEA6AE9BEEA68C0
:102240009A0EE926010EEA22EF50540801E00AD165
:10225000070EA125E96EEA6AE9BEEA689A0EE92648
:10226000010EEA22EF50430801E0FCD0080EA12540
:10227000E96EEA6AE9BEEA689A0EE926010EEA22E8
:10228000EF500101F05D01E0EDD0090E0001A12544
:10229000E96EEA6AE9BEEA689A0EE926010EEA22C8
:1022A000EF503A0801E0DED0A05103E10A0EA1256B
:1022B000A06FA0C0E9FFEA6AE9BEEA689A0EE926C3
:1022C000010EEA22EF50490834E1A029E96EEA6ADA
:1022D000E9BEEA689A0EE926010EEA22EF504E089E
:1022E00028E1020EA025E96EEA6AE9BEEA689A0EC4
:1022F000E926010EEA22EF5054081BE1030EA02547
:10230000E96EEA6AE9BEEA689A0EE926010EEA2257
:10231000EF503F080EE1070E0101D880EF55000194
:10232000A26F060E0101D880EF550001A36F010EC8
:102330003FD0A0C0E9FFEA6AE9BEEA689A0EE92642
:10234000010EEA22EF5045083BE1A029E96EEA6A56
:10235000E9BEEA689A0EE926010EEA22EF50580813
:102360002FE1020EA025E96EEA6AE9BEEA689A0E3C
:10237000E926010EEA22EF50540822E1030EA025BF
:10238000E96EEA6AE9BEEA689A0EE926010EEA22D7
:10239000EF503F0815E1050E0101D880EF5500010F
:1023A000A26F040E0101D880EF550001A36F020E49
:1023B000A46F9F6B040EA025E66E60DEE55257D039
:1023C000A0C0E9FFEA6AE9BEEA689A0EE926010EB2
:1023D000EA22EF504C0846E1A029E96EEA6AE9BE1C
:1023E000EA689A0EE926010EEA22EF5045083AE122
:1023F000020EA025E96EEA6AE9BEEA689A0EE926AD
:10240000010EEA22EF5044082DE1030EA025E96EEB
:10241000EA6AE9BEEA689A0EE926010EEA22EF505E
:102420003F0820E1990E0101ED25E96E000EEE2135
:10243000EA6EEF0409E0990EED25E96E000EEE213B
:10244000EA6EEF50020802E1310E01D0300E916FBA
:10245000040E0001A025E66E11DEE5520001010E1A
:102460009F6F05D00101ED2B000EEE23CDD60001AC
:10247000A55101E05FD1A1C0E9FFEA6AE9BEEA68BF
:102480009A0EE926010EEA22EF503A0801E052D1F5
:10249000A129E96EEA6AE9BEEA689A0EE926010E08
:1024A000EA22EF50530801E045D1020EA125E96E62
:1024B000EA6AE9BEEA689A0EE926010EEA22EF50BE
:1024C000450801E037D1030EA125E96EEA6AE9BEAD
:1024D000EA689A0EE926010EEA22EF50540801E05C
:1024E00029D1040EA125E96EEA6AE9BEEA689A0ECE
:1024F000E926010EEA22EF503A0801E01BD1010162
:10250000ED6BEE6B020EEEAF02D0D89003D0ED5D16
:10251000000EEE5901E30ED1ED51EE1102E1310E44
:1025200001D0320EF06F050E0001A125E96EEA6AB6
:10253000E9BEEA689A0EE926010EEA22EF50540835
:1025400001E0F3D0060EA125E96EEA6AE9BEEA6869
:102550009A0EE926010EEA22EF50430801E0E5D089
:10256000070EA125E96EEA6AE9BEEA689A0EE92635
:10257000010EEA22EF500101F05D01E0D6D0080E15
:102580000001A125E96EEA6AE9BEEA689A0EE92629
:10259000010EEA22EF503A0801E0C7D0A05103E152
:1025A000090EA125A06FA0C0E9FFEA6AE9BEEA68AA
:1025B0009A0EE926010EEA22EF504C0801E0B5D050
:1025C000A029E96EEA6AE9BEEA689A0EE926010ED8
:1025D000EA22EF50450801E0A8D0020EA025E96EDE
:1025E000EA6AE9BEEA689A0EE926010EEA22EF508D
:1025F000440801E09AD0030EA025E96EEA6AE9BE1C
:10260000EA689A0EE926010EEA22EF50200801E05E
:102610008CD0040EA025E96EEA6AE9BEEA689A0E3B
:10262000E926010EEA22EF5041083CE1050EA02503
:10263000E96EEA6AE9BEEA689A0EE926010EEA2224
:10264000EF5055082FE1060EA025E96EEA6AE9BEB3
:10265000EA689A0EE926010EEA22EF50540822E1B8
:10266000070EA025E96EEA6AE9BEEA689A0EE92635
:10267000010EEA22EF504F0815E1990E0101ED25F8
:10268000E96E000EEE21EA6EEF6A410E916F550E73
:10269000926F540E936F4F0E946F0001020E9F6F56
:1026A000080E3ED0040EA025E96EEA6AE9BEEA688B
:1026B0009A0EE926010EEA22EF50310815E1990E33
:1026C0000101ED25E96E000EEE21EA6E020EEF6EBD
:1026D000310E916F050E0001A025E66ECFDCE552AC
:1026E0000001010E9F6F26D0040EA025E96EEA6A54
:1026F000E9BEEA689A0EE926010EEA22EF50300898
:1027000014E1990E0101ED25E96E000EEE21EA6E4D
:10271000030EEF6E300E916F0001010E9F6F050EDC
:10272000A025E66EABDCE55205D00101ED2B000ED5
:10273000EE23E8D60001A55101E011D1A1C0E9FFC7
:10274000EA6AE9BEEA689A0EE926010EEA22EF502B
:102750003A0801E004D1A129E96EEA6AE9BEEA6813
:102760009A0EE926010EEA22EF504D0801E0F7D05B
:10277000020EA125E96EEA6AE9BEEA689A0EE92628
:10278000010EEA22EF504F0801E0E9D0030EA12527
:10279000E96EEA6AE9BEEA689A0EE926010EEA22C3
:1027A000EF50440801E0DBD0040EA125E96EEA6A8F
:1027B000E9BEEA689A0EE926010EEA22EF504508C2
:1027C00001E0CDD0050EA125E96EEA6AE9BEEA680E
:1027D0009A0EE926010EEA22EF503A0801E0BFD036
:1027E000060EA125E96EEA6AE9BEEA689A0EE926B4
:1027F000010EEA22EF504C0801E0B1D0070EA125EE
:10280000E96EEA6AE9BEEA689A0EE926010EEA2252
:10281000EF50450801E0A3D0080EA125E96EEA6A51
:10282000E9BEEA689A0EE926010EEA22EF50440852
:1028300001E095D0090EA125E96EEA6AE9BEEA68D1
:102840009A0EE926010EEA22EF503A0801E087D0FD
:10285000A05103E10A0EA125A06FA0C0E9FFEA6A1A
:10286000E9BEEA689A0EE926010EEA22EF50540802
:1028700001E075D0A029E96EEA6AE9BEEA689A0E1D
:10288000E926010EEA22EF50430869E10101ED6BF0
:10289000EE6B020EEEAF02D0D89003D0ED5D000ECD
:1028A000EE595DE2ED51EE1102E1310E01D0320E32
:1028B000F06F020E0001A025E96EEA6AE9BEEA683F
:1028C0009A0EE926010EEA22EF500101F05D42E185
:1028D000030E0001A025E96EEA6AE9BEEA689A0ED5
:1028E000E926010EEA22EF503F0834E1990E01017A
:1028F000ED25E96E000EEE21EA6EEFCF14F0020E28
:10290000E76E1418E8AE02D0E73402D0E750145C4A
:102910000BE2410E916F550E926F540E936F4F0E56
:10292000946F0001020E0ED04D0E916F410E926F0A
:102930004E0E936F550E946F410E956F4C0E966F21
:102940000001030E9F6F040EA025E66E3EEC10F012
:10295000E55205D00101ED2B000EEE239AD70001C0
:10296000A55101E0EAD0A1C0E9FFEA6AE9BEEA6840
:102970009A0EE926010EEA22EF503A0801E0DDD076
:10298000A129E96EEA6AE9BEEA689A0EE926010E13
:10299000EA22EF50430801E0D0D0020EA125E96EF3
:1029A000EA6AE9BEEA689A0EE926010EEA22EF50C9
:1029B0004F0801E0C2D0030EA125E96EEA6AE9BE24
:1029C000EA689A0EE926010EEA22EF504E0801E06D
:1029D000B4D0040EA125E96EEA6AE9BEEA689A0E4F
:1029E000E926010EEA22EF50460801E0A6D0050EC6
:1029F000A125E96EEA6AE9BEEA689A0EE926010EA7
:102A0000EA22EF50490801E098D0060EA125E96EB0
:102A1000EA6AE9BEEA689A0EE926010EEA22EF5058
:102A2000470801E08AD0070EA125E96EEA6AE9BEEF
:102A3000EA689A0EE926010EEA22EF503A0801E010
:102A40007CD0A05103E1080EA125A06FA0C0E9FF32
:102A5000EA6AE9BEEA689A0EE926010EEA22EF5018
:102A6000410834E1A029E96EEA6AE9BEEA689A0EF3
:102A7000E926010EEA22EF50500828E1020EA025B7
:102A8000E96EEA6AE9BEEA689A0EE926010EEA22D0
:102A9000EF5050081BE1030EA025E96EEA6AE9BE7B
:102AA000EA689A0EE926010EEA22EF503F080EE18D
:102AB0000101310E916F2E0E926F300E936F320E18
:102AC000946F0001020E9F6F040E32D0A0C0E9FF88
:102AD000EA6AE9BEEA689A0EE926010EEA22EF5098
:102AE00048082BE1A029E96EEA6AE9BEEA689A0E75
:102AF000E926010EEA22EF5057081FE1020EA02539
:102B0000E96EEA6AE9BEEA689A0EE926010EEA224F
:102B1000EF503F0812E10101310E916F2E0E926FBE
:102B2000320E936F620E946F0001020E9F6F030EC0
:102B3000A025E66E3EEC10F0E5520001A5511AE129
:102B40002A0E01019A5D16E1490E9B5D13E1440EC8
:102B50009C5D10E14E0E9D5D0DE13F0E9E5D0AE114
:102B60000A0E9F5D07E10001050E9F6F010E606F69
:102B7000630EA06F0001A5516CE1A1C0E9FFEA6AF4
:102B8000E9BEEA689A0EE926010EEA22EF503A08F9
:102B900060E1A129E96EEA6AE9BEEA689A0EE926CF
:102BA000010EEA22EF50680854E1020EA125E96EF9
:102BB000EA6AE9BEEA689A0EE926010EEA22EF50B7
:102BC000650847E1030EA125E96EEA6AE9BEEA68F5
:102BD0009A0EE926010EEA22EF506C083AE1040E43
:102BE000A125E96EEA6AE9BEEA689A0EE926010EB5
:102BF000EA22EF506C082DE1050EA125E96EEA6A84
:102C0000E9BEEA689A0EE926010EEA22EF506F0843
:102C100020E1060EA125E96EEA6AE9BEEA689A0E8D
:102C2000E926010EEA22EF503F0813E10101680E88
:102C3000916F650E926F6C0E936F946F6F0E956F20
:102C40000001060E9F6F070EA025E66E3EEC10F009
:102C5000E552090E00019F5D04E1010E606F630EF5
:102C6000A06F84EC0FF00001A56BA7EF10F0606B74
:102C7000A06BA16BF1EC01F0E552E552E7CFD9FF73
:102C8000120012001200120012002CEF00F01200CD
:102C90007AEF00F00001CC0520E10001CD051DE137
:102CA000A094F0DF64920001CD6B0101100EF16F72
:102CB0000E0EF26FF107000EF25BF151F211FAE124
:102CC0006484080EF16F070EF26FF107000EF25BDD
:102CD000F151F211FAE16494A0841200D9CFE6FF19
:102CE000E1CFD9FFFD0EDBCF08F0FE0EDBCF09F000
:102CF000050E081801E1095036E0E868081802E1FD
:102D00007F0E09182FE0030E081801E1095028E092
:102D1000020E081801E1095021E0010E081801E136
:102D200009501AE0740E081801E1095013E0750EFD
:102D3000081801E109500CE0730E081801E1095070
:102D400005E0720E08180FE109500DD09CDF0BD082
:102D500098DF09D097DF07D09BDF05D098DF03D03D
:102D600094DF01D091DF010EE552E7CFD9FF1200C9
:102D7000D9CFE6FFE1CFD9FFE652A0940F015F6BF8
:102D8000626A536B020EE66EE66AE66A540EE66EFF
:102D90000F0EE66E62EC05F0146E050EE15E145047
:102DA000160E616E0F019F0E5B6F7B0E606EDF6A09
:102DB000DF50146E156A0C0E145C000E155810E2EC
:102DC000DF50040DF3CFE9FFF4CFEAFF000EE92650
:102DD000020EEA22EE6AEE6AEE6AEE6ADF2AE8D7AF
:102DE000648C0F015C6B6498649C62A607D0629649
:102DF0000001C06BC56BC66BC76BF7D70001010E36
:102E0000D96FDA6FDB6BDC6BCD6BDF6A030EDF5CD7
:102E100026E2EA6ADF34FE0BEA36E96EB60EE926F0
:102E2000000EEA22EE6AED6AEA6ADF34FE0BEA3649
:102E3000E96EB00EE926000EEA22EE6AED6ADF5076
:102E4000EA6AD10FE96E000EEA22EF6ADF50EA6A01
:102E5000D40FE96E000EEA22EF6ADF2AD7D700010D
:102E6000080EB66F020EB76F0F01160E536F0201F8
:102E7000300E026F020E036F080E016F840E006F9A
:102E80000001A96BA86BE552E552E7CFD9FF12000C
:102E9000D9CFE6FFE1CFD9FFE6520001A80507E14F
:102EA00064BA05D0626A60806088020EA86F6250C2
:102EB000040B06E06050040B03E0629431EC1DF05B
:102EC00064B25AD06250010B09E06050010B06E079
:102ED0004FDFA0840001040EA86F62906250100BB7
:102EE00006E06050100B03E01CEC1DF0629862AC31
:102EF00019D060AC0FD0010EE66EE66A000EE66EE9
:102F0000E66A730EE66EE66A6EEC16F0146E060E56
:102F1000E15E1450629C0001D75101E0D707D75100
:102F200001E1FDD96250200B05E06050200B02E06A
:102F300002EC1DF06250020B14E06050020B11E035
:102F4000010EE66EE66A000EE66EE66AE6687F0E41
:102F5000E66E6EEC16F0146E060EE15E14500F0174
:102F60005F6B040E0001E76EA819E8AE02D0E734EB
:102F700002D0E750A85D02E2A19439D060A636D015
:102F8000DF6A040EDF5C32E262A630D063CFCEF09F
:102F90000001CE51780BE842E842E842CF6F6296DA
:102FA000CEB506D0CF51EA6AD40FE96E000E05D037
:102FB000CF51EA6AD10FE96E000EEA22EF70CF51CD
:102FC00003E148EC1DF010D0000EE66EE66ACE0E6E
:102FD000E66E000EE66E720EE66EE66A6EEC16F0B7
:102FE000146E060EE15E1450DF2ACBD7A194E55291
:102FF000E552E7CFD9FF1200D9CFE6FFE1CFD9FFE5
:10300000020EE126FD0EDBA407D0E66AFE0EDBCF42
:10301000E6FF14DAE552E552FD0EDBA208D0010E00
:10302000E66EFE0EDBCFE6FF09DAE552E552FE0E54
:10303000DB50156A530F146E0F0E152214C0DEFFFD
:1030400015C0DDFFDECFE9FFDDCFEAFFFD0EDBCFF0
:10305000EFFF020EE15C02E2E16AE552E16EE55249
:10306000E7CFD9FF1200D9CFE6FFE1CFD9FF020E9B
:10307000E126FD0EDB500AE0FE0EEA6ADB34FE0BB1
:10308000EA36E96EB60EE926000E09D0FE0EEA6AAF
:10309000DB34FE0BEA36E96EB00EE926000EEA22BA
:1030A000EECFDEFFEDCFDDFFD9CFE9FFDACFEAFFCC
:1030B000EE50ED1003E1F36AF46A44D0DECFE9FF8D
:1030C000DDCFEAFF020EE926000EEA22FB0EDBCF7F
:1030D000EEFFFC0EDBCFEDFFDECFE9FFDDCFEAFF39
:1030E000EE52FA0EDBCFEFFF400EDECFE9FFDDCF71
:1030F000EAFFE850EF16880EDECFE9FFDDCFEAFFEA
:10310000E850EF12FD0EDB500AE0FE0EEA6ADB34F7
:10311000FE0BEA36E96EB60EE926000E09D0FE0E69
:10312000EA6ADB34FE0BEA36E96EB00EE926000EE1
:10313000EA22EF74DECF14F0DDCF15F014C0F3FFF8
:1031400015C0F4FF020EE15C02E2E16AE552E16EB5
:10315000E552E7CFD9FF1200D9CFE6FFE1CFD9FF83
:10316000020EE126FE0EDB5020E1AEC0E9FFAFC04B
:10317000EAFFEE52080EEF6EAEC0E9FFAFC0EAFF05
:10318000020EE926000EEA22300EEE6E020EED6E01
:10319000AEC0E9FFAFC0EAFF8C0EEF6EB6C0E9FF2C
:1031A000B7C0EAFF840EEF6E3BD0FD0EDB50E82483
:1031B000166EFE0EDB50040DF3501624040DF3CFF3
:1031C00014F0F4CF15F0000E1426020E152214C0D0
:1031D000DEFF15C0DDFF840EDECFE9FFDDCFEAFFA5
:1031E000E850EF12FD0EDB50E824166EFE0EDB50A9
:1031F000040DF3501624010F040DF3CF14F0F4CF97
:1032000015F0000E1426020E152214C0DEFF15C0A4
:10321000DDFF840EDECFE9FFDDCFEAFFE850EF12DD
:10322000020EE15C02E2E16AE552E16EE552E7CFAF
:10323000D9FF1200D9CFE6FFE1CFD9FF64A84ED065
:10324000FE0EEA6ADB34FE0BEA36E96EB60EE926BC
:10325000000EEA22EE50EFCFEAFFE96E400EEE16C6
:10326000EE6AEE6AEE6AFE0EEA6ADB34FE0BEA36BE
:10327000E96EB60EE926000EEA22EE50EFCFEAFF25
:10328000E96EEE7CFE0EEA6ADB34FE0BEA36E96E8E
:10329000B60EE926000EEA22EF74400E146EFE0E02
:1032A000EA6ADB34FE0BEA36E96EB60EE926000E5A
:1032B000EA22EE50EFCFEAFFE96E1450EF16FE0E51
:1032C000EA6ADB34FE0BEA36E96EB60EE926000E3A
:1032D000EA22EE50EFCFEAFFE96EEF7CE552E7CF4E
:1032E000D9FF1200646A606A0001A86B1200000135
:1032F000A85114E1646A606A160E616E0F019F0E98
:103300005B6F7B0E606ED08EA284A084F28E64B65A
:1033100002D06486FCD70001010EA86F12000001E4
:10332000D9514DE1010ED96FDA5149E1010EDA6F41
:10333000020EBD5D0DE1B6C0E9FFB7C0EAFFEE5277
:10334000EF6AB6C0E9FFB7C0EAFFC80EEF6E120021
:10335000BD0535E1D06BACC0E9FFADC0EAFFEE5270
:10336000080EEF6EACC0E9FFADC0EAFF020EE92621
:10337000000EEA22300EEE6E020EED6EACC0E9FFDA
:10338000ADC0EAFF840EEF6E010ED06FAEC0E9FF54
:10339000AFC0EAFFEE52080EEF6EAEC0E9FFAFC05D
:1033A000EAFF020EE926000EEA22300EEE6E020E51
:1033B000ED6EAEC0E9FFAFC0EAFF800EEF6E120007
:1033C0000001DB6BDC6B020EBD5D18E1AEC0E9FFF6
:1033D000AFC0EAFFEE52080EEF6EAEC0E9FFAFC01D
:1033E000EAFF020EE926000EEA22380EEE6E020E09
:1033F000ED6EAEC0E9FFAFC0EAFF1DD0C1510201C2
:10340000365D0001C2510201375904E236C2C1F0F3
:1034100037C2C2F0CAD8B6C0E9FFB7C0EAFF020E91
:10342000E926000EEA22380EEE6E020EED6EB6C0F0
:10343000E9FFB7C0EAFFC80EEF6E1200D9CFE6FF72
:10344000E1CFD9FF020EE126000EDE6E020EDD6E28
:10345000FD0EDB50E824166EFE0EDB50040DF3501B
:103460001624040DF4CF15F0D9CFE9FFDACFEAFF27
:10347000F350EE261550ED22DECFE9FFDDCFEAFF57
:10348000EF9EFD0EDB500AE1FE0EEA6ADB34FE0B16
:10349000EA36E96EB00EE926000E09D0FE0EEA6AA1
:1034A000DB34FE0BEA36E96EB60EE926000EEA22A0
:1034B000DECFEEFFDDCFEDFFDECFE9FFDDCFEAFFB0
:1034C000EF9CDECFE9FFDDCFEAFF040EE926000E18
:1034D000EA22EF8C020EE15C02E2E16AE552E16E63
:1034E000E552E7CFD9FF120064980001C0BF2BD08E
:1034F000C5AF09D0020EBD6FDC5101E161DF0001F3
:10350000DA6BD96B1200AEC0E9FFAFC0EAFFEE5232
:10351000080EEF6EAEC0E9FFAFC0EAFF020EE9266B
:10352000000EEA22300EEE6E020EED6EAEC0E9FF26
:10353000AFC0EAFF8C0EEF6EB6C0E9FFB7C0EAFF7E
:10354000840EEF6E1200020130AF0DD00001010EAB
:10355000BD6FDB5101E134DF0001DA6BD96BD8516B
:1035600023E18FEF19F00001020EBD6FAEC0E9FF3D
:10357000AFC0EAFFEE52080EEF6EAEC0E9FFAFC07B
:10358000EAFF020EE926000EEA22300EEE6E020E6F
:10359000ED6EAEC0E9FFAFC0EAFF840EEF6EDA6BEE
:1035A000D96BD85101E1BBDE1200D9CFE6FFE1CFE4
:1035B000D9FFE652080EDF6E0001C15D000EC25950
:1035C0000AE2C1C0DFFFBC5102E1010E03D0BC051D
:1035D00002E1020EBC6FDF50156AE850C15DC16F99
:1035E0001550C259C26FB6C0E9FFB7C0EAFFEE522C
:1035F000DFCFEFFF380ECA6F020ECB6FC0B118D00D
:10360000DF502DE0BEC0F6FFBFC0F7FFBE2B000E9F
:10361000BF230800F550E66ECAC0E9FFCBC0EAFF41
:10362000CA2B000ECB23E552E750EF6EDF06E8D73A
:10363000DF5015E0BEC0E9FFBFC0EAFFBE2B000EA1
:10364000BF23EF50E66ECAC0E9FFCBC0EAFFCA2B2A
:10365000000ECB23E552E750EF6EDF06E9D7E552C7
:10366000E552E7CFD9FF1200D9CFE6FFE1CFD9FF6E
:10367000020EE126ACC0E9FFADC0EAFFEE52EFCF8B
:10368000DFFFDFCF14F014500001C65D000EC759F4
:1036900002E2C6C0DFFFDF50146E156AE850C65D57
:1036A000C66F1550C759C76F010EDB6ADF50F36E46
:1036B000010EDBCFF4FFF350F45C16E2010EDB5099
:1036C000EA6A380FE96E020EEA22EF50E66EC3C0D6
:1036D000E9FFC4C0EAFFC32B000EC423E552E75044
:1036E000EF6E010EDB2AE2D7000ED880C655000E21
:1036F000C75527E2AEC0E9FFAFC0EAFFEE52080EA1
:10370000EF6EAEC0E9FFAFC0EAFF020EE926000E81
:10371000EA22380EEE6E020EED6EACC0E9FFADC0CF
:10372000EAFFEF50400B06E1AEC0E9FFAFC0EAFF91
:10373000C80E05D0AEC0E9FFAFC0EAFF880EEF6E3D
:1037400028D0AEC0E9FFAFC0EAFFEE52080EEF6E20
:10375000AEC0E9FFAFC0EAFF020EE926000EEA2282
:10376000300EEE6E020EED6EAEC0E9FFAFC0EAFFA6
:10377000840EEF6EC851C91107E005D0C9C0FAFF29
:103780000001C851F96EFADF0001C59FD85101E16F
:10379000C6DD020EE15C02E2E16AE552E16EE5524D
:1037A000E7CFD9FF1200D9CFE6FFE1CFD9FFE6522C
:1037B0000001C08F020EE66EE66AE66A540EE66EFF
:1037C0000F0EE66E62EC05F0146E050EE15E14500D
:1037D000300EE66EE66AE66A000EE66E020EE66EF1
:1037E00062EC05F0146E050EE15E1450648CDF6A25
:1037F000030EDF5C10E2DF50EA6AD10FE96E000EC3
:10380000EA22EF6ADF50EA6AD40FE96E000EEA227C
:10381000EF6ADF2AEDD7020EE66EE66AE66AAA0EC6
:10382000E66E000EE66E62EC05F0146E050EE15ECB
:103830001450649C0001080EB66F020EB76F000EA4
:10384000AC6F020EAD6FACC0AEF0AF6F32C2A9F07C
:10385000A95102E1100E12D0010EE66EE66AA90E21
:10386000E66E000EE66E010EE66EE66A6EEC16F08F
:10387000146E060EE15E14500001200EA86FE55292
:10388000E552E7CFD9FF1200800E0201305D58E10A
:103890000001C00EC06F02013351030A2FE0010A7C
:1038A00009E0030A4BE10001100EBE6F090EBF6F65
:1038B000120E3ED03251F66EF76AD890F636F736D1
:1038C000B50EF626090EF7220900F5CFBEF00A0064
:1038D000F5CFBFF0020E0001F76ABE25F66EBF51AC
:1038E000F7220800F5CFC1F0030EF76ABE25F66E89
:1038F000BF51F7220800F5CFC2F01200030E325D6F
:103900001AE23251F66EF76AD890F636F736B70EED
:10391000F626090EF7220900F5CFBEF00A00F5CF12
:10392000BFF0BEC0F6FFBFC0F7FF0800F5500001B2
:10393000C16FC26B12000001C06B12000001C06BAE
:103940001200D9CFE6FFE1CFD9FF020EE126020136
:10395000386B396B30511F0B020A11E0030A0CE07F
:10396000010A3CE10001C08F020138810001CC0551
:1039700035E10201388332D00001C08F2FD0000121
:10398000C08F020134BF0BD034510F0BE96EEA6ACD
:10399000D890E936EA36B00EE926000E0AD0345146
:1039A0000F0BE96EEA6AD890E936EA36B60EE926D8
:1039B000000EEA22EECFDEFFEDCFDDFFDECFE9FF26
:1039C000DDCFEAFFEF50800B09E0DECFE9FFDDCF6E
:1039D000EAFFEF50040B02E0010E386F0001C0AFA8
:1039E00007D0380EBE6F020EBF6FC081020EC16FCE
:1039F000020EE15C02E2E16AE552E16EE552E7CFD8
:103A0000D9FF12000F0153A115D0ACC0E9FFADC022
:103A1000EAFFEF5080080DE1B6C0E9FFB7C0EAFF4A
:103A2000EF50840806E1ACC0E9FFADC0EAFF8C0EA0
:103A3000EF6E5391629A1200608462986482000172
:103A4000010ECD6F000EE66EE66AE66EE66A750E52
:103A5000E66EE66A6EEC16F0146E060EE15E145029
:103A600012000001CD6B000EE66EE66AE66EE66AB5
:103A7000740EE66EE66A6EEC16F0146E060EE15EEB
:103A800014506492609462A402D06294FCD7120035
:103A9000D9CFE6FFE1CFD9FFE65200012D0ED76F57
:103AA000FD0ECE1553E17E0ECE15E8407F0B040DC2
:103AB000F3CFACF0F4CFADF0000EAC27020EAD2387
:103AC000ACC0AEF0ADC0AFF0AE75ACC0E9FFADC0FC
:103AD000EAFFEF503C0BE842E8420D0835E1DF6AAF
:103AE000080EDF5C23E2ACC0E9FFADC0EAFF020EC6
:103AF000E926000EEA22EE50EFCFEAFFE96EEF5022
:103B0000E66EDF50EA6A300FE96E020EEA22E552F5
:103B1000E750EF6EACC0E9FFADC0EAFF020EE92648
:103B2000000EEA22EE2AEF22DF2ADAD7ACC0E9FF44
:103B3000ADC0EAFF020EE926000EEA22300EEE6E5C
:103B4000020EED6E0DD807D03AD805D0FD0ECE1579
:103B5000040801E159D8E552E552E7CFD9FF120038
:103B60000001BC6BD86BDB6BDC6BD06BBD6BB6C084
:103B7000E9FFB7C0EAFFEF9EB675B6C0E9FFB7C070
:103B8000EAFFEF9EB675AEC0E9FFAFC0EAFFEF9E59
:103B9000C06BC16BC26BC56BC66BC76B8FD8000E99
:103BA000E66EE66AE66EE66A030EE66EE66A6EECBE
:103BB00016F0146E060EE15E145074EF1AF0020E49
:103BC0000001BD5D02E134EF1BF0BD6BD0511AE185
:103BD000AEC0E9FFAFC0EAFFEE52080EEF6EAEC016
:103BE000E9FFAFC0EAFF020EE926000EEA22300E1E
:103BF000EE6E020EED6EAEC0E9FFAFC0EAFF8C0EB6
:103C0000EF6E1200D06B1200D9CFE6FFE1CFD9FFE3
:103C1000E652B6C0E9FFB7C0EAFFEF50400B01E043
:103C2000010EDF6E0001B675080EA85D0BE132C211
:103C30005CFF0F015C5103E00001100E02D0000197
:103C4000040EA86FBD0526E1B6C0E9FFB7C0EAFFC4
:103C5000020EE926000EEA22380EEE6E020EED6E1E
:103C6000A4DC020E0001BC5D06E1B6C0E9FFB7C0EE
:103C7000EAFF840E0DD0DF5006E1B6C0E9FFB7C001
:103C8000EAFFC80E05D0B6C0E9FFB7C0EAFF880E4C
:103C9000EF6E0FD0C5AF0CD0C851C91107E005D0E9
:103CA000C9C0FAFF0001C851F96EFADF0001C59FD3
:103CB000BD6BE552E552E7CFD9FF1200020130514A
:103CC000600BE842E842E842E842E842000901E0CD
:103CD000120031510C0A50E00B0A3FE00C0A31E0AF
:103CE000010A22E00B0A1EE0020A1CE0030A18E0A7
:103CF000080A10E0010A0CE00F0A08E0030A01E0DC
:103D000012000001C08F080EA86F120044EF1CF0D3
:103D1000D3EF1BF00001A90EBE6F000EBF6F0CD0D9
:103D2000A1EF1CF0BDEF1EF034510001BE6FBF6B60
:103D3000AA0EBE27000EBF23C081010EC16FC08F27
:103D400012000001C08F02013451EA6AAA0FE96E25
:103D5000000EEA2232C2EFFF1200000EE66EE66AA3
:103D6000E66EE66A020EE66EE66A6EEC16F0146E19
:103D7000060EE15E145012001200D9CFE6FFE1CF2B
:103D8000D9FF050EE1260201320510E130511F0B6B
:103D900000090CE10001C08F030E0201315D04E156
:103DA0000001010ECC6F02D00001CC6B0201325138
:103DB00001E011D130511F0B020801E00CD1345148
:103DC0000F0B000901E107D134510F0B020801E28A
:103DD00002D1200E0001A85D01E0FDD0C08F0201DC
:103DE00034BF16D034510F0BE96EEA6AD890E93629
:103DF000EA36B00EE926000EEA22EECFDEFFEDCF66
:103E0000DDFF34510F0BEA6AD40FE96E000E15D0B6
:103E100034510F0BE96EEA6AD890E936EA36B60EED
:103E2000E926000EEA22EECFDEFFEDCFDDFF3451B2
:103E30000F0BEA6AD10FE96E000EEA22020EEFCFF5
:103E4000DBFFD950020FE96EDACFEAFFEF50010B2A
:103E500003E1000EDF9401D0DF8434BF0BD0345176
:103E60000F0BE96EEA6AD890E936EA36B00EE92619
:103E7000000E0AD034510F0BE96EEA6AD890E93689
:103E8000EA36B60EE926000EEA22DECFEEFFDDCFDF
:103E9000EDFF030E315D20E1DECFE9FFDDCFEAFF6C
:103EA000EF50800B11E034BF07D034510F0BEA6A9A
:103EB000D40FE96E000E06D034510F0BEA6AD10F11
:103EC000E96E000EEA22EF82840EDECFE9FFDDCF3D
:103ED000EAFFE850EF127FD0DF74DECFE9FFDDCFDD
:103EE000EAFFEF50800B1BE0DECFE9FFDDCFEAFFFA
:103EF000EF9EDECFE9FFDDCFEAFFEF8C020EE66E2C
:103F0000E66ADECFE6FFDDCFE6FF050EE66EE66A87
:103F10006EEC16F0146E060EE15E145005D0DECF86
:103F2000E9FFDDCFEAFFEF8CDF74D950020FE96EB5
:103F3000DACFEAFFEF50020B07E1DECFE9FFDDCF7A
:103F4000EAFFEF50800B2BE0020134BF07D0345161
:103F50000F0BEA6AD40FE96E000E06D034510F0B36
:103F6000EA6AD10FE96E000EEA22EF923B0E146E60
:103F7000DECFE9FFDDCFEAFFE850EF16020EE66E76
:103F8000E66ADECFE6FFDDCFE6FF050EE66EE66A07
:103F90006EEC16F0146E060EE15E145007D03B0E68
:103FA000DECFE9FFDDCFEAFFE850EF160201345122
:103FB0000F0B156A530F146E0F0E1522030E14C04B
:103FC000DBFF040E15C0DBFF030EDBCFE9FF040EA1
:103FD000DBCFEAFFEF90050EE15C02E2E16AE55219
:0A3FE000E16EE552E7CFD9FF1200B1
:020000040030CA
:0100000000FF
:0100010032CC
:0100020003FA
:010003001EDE
:0100050000FA
:010006008178
:0100080003F4
:01000900C036
:01000A0003F2
:01000B00E014
:01000C0003F0
:01000D0040B2
:00000001FF
