:020000040000FA
:06000000E3EF02F0120024
:0600080024EF00F01200DD
:0600180028EF00F01200C9
:06002A000100E2050000E8
:08003000600000004100000027
:06004000E3EF02F01200E4
:02004600FFFFBA
:0600480000EF08F01200B9
:0600500066EF09F012004A
:020056000201A5
:08005800019E08D0019E09AED3
:1000600005D0086C091EE86A0922018E09C003F058
:1000700008C002F0136A126A8E0E046E056AE3EF7E
:1000800001F00F7E016A1FEC02F037EC02F001B6BE
:10009000C7EF01F001A20AD001AA03D001BEC7EF49
:1000A00001F001A4D3EF01F0D0EF01F001AA05D0D7
:1000B00001ACD3EF01F0D0EF01F001A00AD001A80C
:1000C00008D001BE04D001A402D0DCEF01F0E0EFC3
:1000D00001F0126A056A0F500A5C116E10E307C046
:1000E00013F008C002F009C003F00AC010F00CC001
:1000F00007F00DC008F00EC009F0013A09D00CC09D
:1001000013F00DC002F00EC003F00FC010F0116C20
:10011000019E01BC018E10C004F001B00FEF02F08F
:100120001A0E11600FEF02F0046A0A6A01A408D0E7
:10013000076C081E091E0A1EE86A082209220A2204
:1001400001AC08D0136C021E031E041EE86A0222D2
:1001500003220422066A115207E00A3409320832E7
:1001600007320632112EF9D7075013260850022203
:10017000095003220A50042206C012F0019E04AE68
:100180000BD0126C131E021E031E041EE86A1322FB
:10019000022203220422018E04A006D0D88003325A
:1001A000023213321232102A10C004F0E3EF01F0D1
:1001B000016A1FEC02F037EC02F001B6C7EF01F064
:1001C00001A205D001B8C7EF01F0CEEF01F001AAFE
:1001D00005D001B0C7EF01F0CEEF01F001B002D0C1
:1001E00001A802D0DAEF01F0056A0F500A24046E6C
:1001F000E86A05227E0E045EE86A055A126A136AEE
:10020000026A036A0E500902F4CF03F0F3CF02F042
:100210000D500902F3501326F4500222000E03225F
:100220000E500802F3501326F4500222000E03224F
:100230000C500902F3501226F4501322000E022231
:1002400003220D500802F3501226F4501322000E20
:10025000022203220E500702F3501226F4501322FA
:10026000000E022203220C500802F4501226000E47
:100270001322022203220D500702F4501226000E10
:10028000132202220322E3EF01F0006A0EAE4EEFCA
:1002900001F00D6C0E1EE86A0E22001E09AE56EF2C
:1002A00001F0086C091EE86A0922001ECDEC02F07C
:1002B00009BE66EF01F000AE000C086C091EE86A8A
:1002C0000922046C051EE86A0522000C00BE5DEFE1
:1002D00001F00188FF0C09C013F008C012F00850AB
:1002E0000D02F4CF07F0F3CF06F009500E02F4CF61
:1002F00009F0F3CF08F00D02F3500726F45008225E
:10030000E86A092212500E02F3500726F450082220
:10031000E86A09220EAE91EF01F01250085E135008
:10032000095A13AE000C0D50085E0E50095A000C0D
:10033000016A1FEC02F001B6A2EF01F001A20ED09B
:1003400001B405D07F0E096EFF0E086E1FD0800E1F
:10035000096E086A1BD0096A086A18D001B0FBD779
:100360008F0E0A60EDD77E0E0A64F5D78E0E0A5CFA
:1003700005E0D890093208320A2AF8D701A406D03D
:10038000086C091EE86A092209AEE5D712007F0E43
:100390000A6EFF0E096E086E076E12007F0E01BE18
:1003A000FF0E0A6E02D07F0E0A6E800E096E086A7A
:1003B000076AF3D701AE04D0800E0A6E096AF7D738
:1003C0000A6A096AF4D70350021013101210F8E0F9
:1003D00005BEF0D703BE0CD004500510EBE0D8905A
:1003E00012361336023603360406D8A00506F2D7B5
:1003F0000550D4E10428D2E012AE11D07F0E1214C1
:1004000002E113A00CD0132AE86A0222032207E3B8
:10041000D880033202321332042A0428BFE0045089
:10042000C9E013C007F002C008F00334096E0430BD
:100430000A6E09320A9E01BE0A8ECDEF01F009361E
:100440000A3602E30184017E06E101800A6A096A34
:10045000086A076A12000A2803E0D88009321200ED
:10046000D890093202E101821200018612000E3694
:100470000F3602E3018C017E06E101880F6A0E6AE5
:100480000D6A0C6A12000F2803E0D8800E321200A9
:0A049000D8900E32EAE1018A120052
:06049A002A0EF66E000EB2
:1004A000F76E000EF86E00010900F550DB6F0900D1
:1004B000F550DC6F03E1DB6701D03DD00900F5505A
:1004C000D66F0900F550D76F0900F550D86F0900B5
:1004D0000900F550E96E0900F550EA6E09000900BF
:1004E0000900F550D96F0900F550DA6F09000900CD
:1004F000F6CFDDF0F7CFDEF0F8CFDFF0D6C0F6FFB5
:10050000D7C0F7FFD8C0F8FF0001D95302E1DA5392
:1005100007E00900F550EE6ED907F8E2DA07F9D7DF
:10052000DDC0F6FFDEC0F7FFDFC0F8FF0001DB072C
:08053000000EDC5BBFD71200D6
:08053800FE0EE3CFE9FFFF0E08
:10054000E3CFEAFFE9CFF3FFEACFF4FFFB0EE3507E
:1005500003E1FC0EE35009E0FB0EE30602E2FC0EB1
:0C056000E306FD0EE350EE6EF1D7120032
:04056C00D9CFE6FFFE
:10057000DACFE6FFE1CFD9FFE2CFDAFFE652C9508A
:10058000DF6E9E96C96A9EA6FED7C950E552E55217
:0A059000E5CFDAFFE7CFD9FF120034
:06059A00056A046A100E60
:1005A000E76ED89008360936043605360D50045CDF
:1005B0000E50055805E30D50045E0E50055A082AEA
:0605C000E72EF0D7120047
:0A05C60011EE00F021EE00F0F86ADB
:1005D000019C4DEC02F0FCEC1FF08CEC09F0FBD719
:0205E000120007
:0E05E200434443205443204C4F47474552208A
:1005F000444556494345204259204D414B494E47B9
:1006000020444556494345532048573A312E32201D
:1006100046573A312E3032200A0000000000000018
:03062000000000D7
:10100000DACFE4FFE2CFDAFFE9CFE4FFEACFE4FF93
:10101000F6CFE4FFF7CFE4FFF5CFE4FFF3CFE4FF33
:10102000F4CFE4FFFACFE4FF00EE00F0140EE80482
:1010300003E3EECFE4FFFBD700EE14F00C0EE80460
:1010400003E3EECFE4FFFBD7E652D9CFE6FFE1CFD3
:10105000D9FF020EE12648EC14F0F2A40AD1500E9A
:10106000D76E380ED66EF2940001975101E081D010
:101070008B92B6EC02F00101C06FB6EC02F00101F8
:10108000C16FB6EC02F00101C26FB6EC02F00101D3
:10109000C36F8B820001010E976FDE6ADD6ADECFBF
:1010A00020F0DDCF21F0D890215004E6040E205C22
:1010B000000E215824E2DECFE9FFDDCFEAFFC00EAB
:1010C000E926010EEA22EF5015E0DECFE9FFDDCF81
:1010D000EAFFC00EE926010EEA22EF50E66EDECFEF
:1010E000E9FFDDCFEAFFC80EE926010EEA22E5524C
:1010F000E750EF6EDF2A010ED2E3DB2AD0D7020ED3
:10110000000199AF02D0D89003D0985D000E995994
:1011100027E2070E0101C315206E000EE76E2018AE
:10112000E8AE02D0203403D0E750D88020540EE33C
:10113000010EC115216E000EE76E2118E8AE02D037
:10114000213403D0E750D880215405E28B84010E6E
:101150000001986F03D08B940001986B996B89D034
:10116000020E981904E1995102E18B8482D08B948C
:1011700080D08B90B6EC02F00101C46FB6EC02F0A7
:101180000101C56FB6EC02F00101C66FB6EC02F0CA
:101190000101C76F8B800001976B040EDE6EDD6A64
:1011A000DECF20F0DDCF21F0D890215004E6080EEC
:1011B000205C000E215824E2DECFE9FFDDCFEAFFFC
:1011C000C00EE926010EEA22EF5015E0DECFE9FF5E
:1011D000DDCFEAFFC00EE926010EEA22EF50E66EEF
:1011E000DECFE9FFDDCFEAFFC80EE926010EEA22D5
:1011F000E552E750EF6EDF2A010ED2E3DB2AD0D7AB
:10120000020E00019BAF02D0D89003D09A5D000E71
:101210009B5927E2070E0101C715206E000EE76EED
:101220002018E8AE02D0203403D0E750D8802054F4
:101230000EE3010EC515216E000EE76E2118E8AE13
:1012400002D0213403D0E750D880215405E28B86A8
:10125000010E00019A6F03D08B9600019A6B9B6B75
:1012600008D0020E9A1904E19B5102E18B8601D04D
:101270008B96020EE15C02E2E16AE552E16EE55214
:10128000E7CFD9FFE55200EE1FF00C0EE80403E3B0
:10129000E5CFEDFFFBD700EE13F0140EE80403E3F7
:1012A000E5CFEDFFFBD7E5CFFAFFE5CFF4FFE5CFC4
:1012B000F3FFE5CFF5FFE5CFF7FFE5CFF6FFE5CF8D
:1012C000EAFFE5CFE9FFE5CFDAFF1100D8CFE4FF71
:1012D000E0CFE4FFE46EDACFE4FFE652E552E5CF7B
:1012E000DAFFE550E5CFE0FFE5CFD8FF1000D59C51
:1012F000D59AD596D594D582D580500ED76E380E16
:10130000D66ED58ED08EF28CF28EF28AF28AF1846D
:10131000F294D58EF28E120085EC0FF0E8DF946A1D
:101320008B808B823F0E936E7F94800EE66EE66A12
:10133000010EE66EB8EC1FF0E552E552E5520001F1
:10134000A15102E177EC16F08BEC0FF0F8D7D9CF72
:10135000E6FFE1CFD9FF040EE126DE6ADE6ADE6A2F
:10136000DD6ADD52DD52D950FB0FE96EFF0EDA2047
:10137000EA6E010EEE181CE1ED501AE1FE0EDB5094
:10138000010B010803E1DE6ADE6A08D0FE0EDB50C5
:10139000020B020805E1DE6A800EDE6E960E11D0A9
:1013A000FE0EDB50040B040866E1DE6ADE6A08D03C
:1013B000FE0EDB50010B010808E1DE6A800EDE6ED6
:1013C000970EDE6EC30EDD6E7CD3100EF36EFB0E39
:1013D000F3CFDBFFFC0EDB6AFE0EDB50040B0408D0
:1013E00023E1146A156A800E166E3E0E176ED9CF71
:1013F000E9FFDACFEAFFEECF07F0EECF08F0EECF4D
:1014000009F0EFCF0AF014C00CF015C00DF016C0B3
:101410000EF00F6E42EC00F00AC0EDFF09C0EDFFC8
:1014200008C0EDFF07C0EFFFFE0EDB50080B0808F9
:1014300022E1146A156A166A3F0E176ED9CFE9FFCA
:10144000DACFEAFFEECF07F0EECF08F0EECF09F0EB
:10145000EFCF0AF014C00CF015C00DF016C00EF05E
:101460000F6E42EC00F00AC0EDFF09C0EDFF08C0AE
:10147000EDFF07C0EFFFFE0EDB50100B10084EE132
:10148000186A196A800E1A6E3D0E1B6EFB0EDBCFBA
:1014900008F0FC0EDBCF09F02EEC00F007C01CF0CA
:1014A00008C01DF009C01EF00AC01FF007C00CF0F4
:1014B00008C00DF009C00EF00AC00FF018C007F008
:1014C00019C008F01AC009F01BC00AF0D8EC00F0EF
:1014D00007C014F008C015F009C016F00AC017F0D4
:1014E000D9CFE9FFDACFEAFFEECF07F0EECF08F071
:1014F000EECF09F0EFCF0AF014C00CF015C00DF0DC
:1015000016C00EF017C00FF042EC00F00AC0EDFF5D
:1015100009C0EDFF08C0EDFF07C0EFFFFE0EDB5076
:10152000200B20084DE1186A196A1A6A3E0E1B6EDC
:10153000FB0EDBCF08F0FC0EDBCF09F02EEC00F049
:1015400007C01CF008C01DF009C01EF00AC01FF043
:1015500007C00CF008C00DF009C00EF00AC00FF073
:1015600018C007F019C008F01AC009F01BC00AF033
:10157000D8EC00F007C014F008C015F009C016F050
:101580000AC017F0D9CFE9FFDACFEAFFEECF07F0B4
:10159000EECF08F0EECF09F0EFCF0AF014C00CF058
:1015A00015C00DF016C00EF017C00FF042EC00F0A1
:1015B0000AC0EDFF09C0EDFF08C0EDFF07C0EFFF57
:1015C000FE0EDB50400B40084EE1186A196A800E8F
:1015D0001A6E3E0E1B6EFB0EDBCF08F0FC0EDBCF4F
:1015E00009F02EEC00F007C01CF008C01DF009C087
:1015F0001EF00AC01FF007C00CF008C00DF009C0B3
:101600000EF00AC00FF018C007F019C008F01AC099
:1016100009F01BC00AF0D8EC00F007C014F008C0B5
:1016200015F009C016F00AC017F0D9CFE9FFDACFDC
:10163000EAFFEECF07F0EECF08F0EECF09F0EFCFE4
:101640000AF014C00CF015C00DF016C00EF017C053
:101650000FF042EC00F00AC0EDFF09C0EDFF08C03A
:10166000EDFF07C0EFFFFE0EDB50800B80084DE161
:10167000186A196A1A6A3F0E1B6EFB0EDBCF08F060
:10168000FC0EDBCF09F02EEC00F007C01CF008C008
:101690001DF009C01EF00AC01FF007C00CF008C002
:1016A0000DF009C00EF00AC00FF018C007F019C005
:1016B00008F01AC009F01BC00AF0D8EC00F007C00F
:1016C00014F008C015F009C016F00AC017F0D9CF01
:1016D000E9FFDACFEAFFEECF07F0EECF08F0EECF6A
:1016E00009F0EFCF0AF014C00CF015C00DF016C0D1
:1016F0000EF017C00FF042EC00F00AC0EDFF09C079
:10170000EDFF08C0EDFF07C0EFFFFD0EDB50010B42
:1017100001082EE1FB0EDBCF08F0FC0EDBCF09F059
:101720002EEC00F007C014F008C015F009C016F048
:101730000AC017F0D9CFE9FFDACFEAFFEECF07F002
:10174000EECF08F0EECF09F0EFCF0AF014C00CF0A6
:1017500015C00DF016C00EF017C00FF042EC00F0EF
:101760000AC0EDFF09C0EDFF08C0EDFF07C0EFFFA5
:10177000FD0EDB50020B02083BE1020E086E096A07
:10178000FB0EDBCF0DF0FC0EDBCF0EF06BEC01F0AF
:1017900006C018F007C019F006C008F007C009F02D
:1017A0002EEC00F007C014F008C015F009C016F0C8
:1017B0000AC017F0D9CFE9FFDACFEAFFEECF07F082
:1017C000EECF08F0EECF09F0EFCF0AF014C00CF026
:1017D00015C00DF016C00EF017C00FF042EC00F06F
:1017E0000AC0EDFF09C0EDFF08C0EDFF07C0EFFF25
:1017F000FD0EDB50040B04083BE1040E086E096A81
:10180000FB0EDBCF0DF0FC0EDBCF0EF06BEC01F02E
:1018100006C018F007C019F006C008F007C009F0AC
:101820002EEC00F007C014F008C015F009C016F047
:101830000AC017F0D9CFE9FFDACFEAFFEECF07F001
:10184000EECF08F0EECF09F0EFCF0AF014C00CF0A5
:1018500015C00DF016C00EF017C00FF042EC00F0EE
:101860000AC0EDFF09C0EDFF08C0EDFF07C0EFFFA4
:10187000FD0EDB50080B08083BE1080E086E096AF4
:10188000FB0EDBCF0DF0FC0EDBCF0EF06BEC01F0AE
:1018900006C018F007C019F006C008F007C009F02C
:1018A0002EEC00F007C014F008C015F009C016F0C7
:1018B0000AC017F0D9CFE9FFDACFEAFFEECF07F081
:1018C000EECF08F0EECF09F0EFCF0AF014C00CF025
:1018D00015C00DF016C00EF017C00FF042EC00F06E
:1018E0000AC0EDFF09C0EDFF08C0EDFF07C0EFFF24
:1018F000FD0EDB50100B10083BE1100E086E096A5C
:10190000FB0EDBCF0DF0FC0EDBCF0EF06BEC01F02D
:1019100006C018F007C019F006C008F007C009F0AB
:101920002EEC00F007C014F008C015F009C016F046
:101930000AC017F0D9CFE9FFDACFEAFFEECF07F000
:10194000EECF08F0EECF09F0EFCF0AF014C00CF0A4
:1019500015C00DF016C00EF017C00FF042EC00F0ED
:101960000AC0EDFF09C0EDFF08C0EDFF07C0EFFFA3
:10197000FD0EDB50200B20083BE1200E086E096AAB
:10198000FB0EDBCF0DF0FC0EDBCF0EF06BEC01F0AD
:1019900006C018F007C019F006C008F007C009F02B
:1019A0002EEC00F007C014F008C015F009C016F0C6
:1019B0000AC017F0D9CFE9FFDACFEAFFEECF07F080
:1019C000EECF08F0EECF09F0EFCF0AF014C00CF024
:1019D00015C00DF016C00EF017C00FF042EC00F06D
:1019E0000AC0EDFF09C0EDFF08C0EDFF07C0EFFF23
:1019F000FD0EDB50400B40083BE1400E086E096ACB
:101A0000FB0EDBCF0DF0FC0EDBCF0EF06BEC01F02C
:101A100006C018F007C019F006C008F007C009F0AA
:101A20002EEC00F007C014F008C015F009C016F045
:101A30000AC017F0D9CFE9FFDACFEAFFEECF07F0FF
:101A4000EECF08F0EECF09F0EFCF0AF014C00CF0A3
:101A500015C00DF016C00EF017C00FF042EC00F0EC
:101A60000AC0EDFF09C0EDFF08C0EDFF07C0EFFFA2
:101A7000FD0EDB50800B800826E1D9CFE9FFDACFDD
:101A8000EAFFEECF14F0EECF15F0EECF16F0EFCF69
:101A900017F00C6A0D6A800E0E6EBF0E0F6E14C02A
:101AA00007F015C008F016C009F017C00AF0D8EC0E
:101AB00000F007C0DEFF08C0DEFF09C0DEFF0AC07D
:101AC000DDFFDD52DD52DECF06F0DECF07F0DECFE8
:101AD00008F0DDCF09F0DD52DD52040EE15C02E2D8
:101AE000E16AE552E16EE552E7CFD9FF1200D9CFA6
:101AF000E6FFE1CFD9FF090EE126040EDB6AF90EFD
:101B0000DBCF14F0FA0EDBCF15F0FB0EDBCF16F0B7
:101B1000FC0EDBCF17F00C6A0D6AC80E0E6E420E7B
:101B20000F6E14C007F015C008F016C009F017C0FA
:101B30000AF0D8EC00F098EC01F0050E08C0DBFFCD
:101B4000060E09C0DBFFFD0EDBCF08F0FE0EDBCF7B
:101B500009F0020E08C0DBFF030E09C0DBFFD950FD
:101B6000050FE96EDACFEAFFEE50ED1033E1020E19
:101B7000DBCFE9FFDB2A030EDBCFEAFF01E3DB2A41
:101B8000300EEF6E020EDBCFE9FFDB2A030EDBCF58
:101B9000EAFF01E3DB2A2E0EEF6E020EDBCFE9FF38
:101BA000DB2A030EDBCFEAFF01E3DB2A300EEF6E08
:101BB000020EDBCFE9FFDB2A030EDBCFEAFF01E3F6
:101BC000DB2A300EEF6E020EDBCFE9FF030EDBCF18
:101BD000EAFF8CD1050EDBCF14F0060EDBCF15F03B
:101BE0000001800E151427E0FD0EDBCFE9FFDB2A94
:101BF000FE0EDBCFEAFF01E3DB2A2D0EEF6EFD0EBA
:101C0000DBCF08F0FE0EDBCF09F0020E08C0DBFFD1
:101C1000030E09C0DBFF08680968050EDBCF0DF075
:101C2000060EDBCF0EF06BEC01F0050E06C0DBFFFD
:101C3000060E07C0DBFFD950050FE96EDACFEAFFC9
:101C4000EE50ED103FE0040EDB2A050EDBCF14F062
:101C5000060EDBCF15F00A0E0D6E0E6A14C008F0EA
:101C600015C009F045EC01F004C014F005C015F0F2
:101C700004C0DEFF05C0DDFFDECF14F0DDCF15F0C0
:101C8000300E1426000E1522020EDBCFE9FFDB2AF0
:101C9000030EDBCFEAFF01E3DB2A14C0EFFFD950CC
:101CA000050FE96EDACFEAFF0A0E0D6E0E6AEECF6F
:101CB00008F0EDCF09F045EC01F008C0EEFF09C0D7
:101CC000EDFFB9D7DE6ADD6A040EDB50FE0BE84299
:101CD000DF5C66E2DF50E76EFD0EDBCFE9FFFE0E54
:101CE000DBCFEAFFE750E926000EEA22EF50E66E6E
:101CF000040EDB50E76EFD0EDBCFE9FFFE0EDBCFFF
:101D0000EAFFE750E926000EEA22E552E750EF6EBF
:101D1000040EDB50D880DF54FF0FE76EFD0EDBCFE3
:101D2000E9FFFE0EDBCFEAFFE750E926000EEA22CC
:101D3000EF50E66EDF50E76EFD0EDBCFE9FFFE0EE3
:101D4000DBCFEAFFE750E926000EEA22E552E75032
:101D5000EF6E040EDB50E76EFD0EDBCFE9FFFE0EEB
:101D6000DBCFEAFFE750E926000EEA22EF50E66EED
:101D7000040EDB50D880DF54FF0FE76EFD0EDBCF83
:101D8000E9FFFE0EDBCFEAFFE750E926000EEA226C
:101D9000E552E750EF6EDF2A010E96E3DB2A94D777
:101DA000040EDB043FE1FD0EDBCFE9FFFE0EDBCFCF
:101DB000EAFFEF50E66E030EE76EFD0EDBCFE9FFA4
:101DC000FE0EDBCFEAFFE750E926000EEA22E552DD
:101DD000E750EF6EFD0EDBCFE9FFFE0EDBCFEAFF33
:101DE000300EEF6E010EE76EFD0EDBCFE9FFFE0E4B
:101DF000DBCFEAFFE750E926000EEA222E0EEF6E57
:101E0000020EE76EFD0EDBCFE9FFFE0EDBCFEAFF31
:101E1000E750E926000EEA22300EEF6E030EE76E61
:101E2000020E5BD0040EDB50E76EFD0EDBCFE9FF48
:101E3000FE0EDBCFEAFFE750E926000EEA22E906B4
:101E4000EA5AEF50E66E040EDB50E76EFD0EDBCF74
:101E5000E9FFFE0EDBCFEAFFE750E926000EEA229B
:101E6000E552E750EF6E040EDB50E76EFD0EDBCF60
:101E7000E9FFFE0EDBCFEAFFE750E926000EEA227B
:101E8000020EE95E000EEA5AEF50E66E040EDB50D9
:101E9000E76EFD0EDBCFE9FFFE0EDBCFEAFFE7507A
:101EA000E926000EEA22E906EA5AE552E750EF6E0B
:101EB000040EDB50E76EFD0EDBCFE9FFFE0EDBCF3D
:101EC000EAFFE750E926000EEA22020EE95E000E64
:101ED000EA5A2E0EEF6E020EE76EDBCFE9FF030E1D
:101EE000DBCFEAFFE750E926000EEA22EF6A040E94
:101EF000DB28146E090EE15C02E2E16AE552E16E54
:101F00001450E552E7CFD9FF12000F0EC11202D8CC
:101F1000B8EF13F01200D9CFE6FFE1CFD9FF0D0ED5
:101F2000E126200E0001E76EA119E8AE02D0E734E9
:101F300002D0E750A15D01E29AD36450020B01E0A8
:101F400096D30101D45101E090D3200EE66EB00E7D
:101F5000E66E010EE66EBCEC1DF0E552E552E55270
:101F6000E76E0C0EE7CFDBFFDB5001E17ED3000113
:101F7000090EA06F3A0E0101B05D01E0F8D04D0EE0
:101F8000B15D01E0F4D0450EB25D01E0F0D0410E4C
:101F9000B35D01E0ECD0530EB45D01E0E8D03A0E41
:101FA000B55D6CE1540EB65D69E1430EB75D66E167
:101FB000310EB85D63E13A0EB95D1CE1490EBA5DC0
:101FC00019E14E0EBB5D16E1540EBC5D13E13F0EF0
:101FD000BD5D10E10A0EBE5D0DE1030EF36E040E51
:101FE000F3CFDBFF050EDB6A020EF36E060EF3CFB6
:101FF000DBFF6BD03A0EB95D19E1450EBA5D16E113
:10200000580EBB5D13E1540EBC5D10E13F0EBD5D8B
:102010000DE10A0EBE5D0AE1010EF36E040EF3CF70
:10202000DBFF050EDB6A060EDB6A71D03A0EB95D86
:1020300001E09DD04C0EBA5D01E099D0450EBB5D2C
:1020400001E095D0440EBC5D01E091D03F0EBD5D36
:1020500001E08DD00A0EBE5D01E089D00001010EC5
:10206000A06F981901E1995101E17BD0020E9819F6
:1020700001E07AD0995101E077D073D03A0EB55D86
:1020800076E1540EB65D73E1430EB75D70E1320E3A
:10209000B85D6DE13A0EB95D1CE1490EBA5D19E11A
:1020A0004E0EBB5D16E1540EBC5D13E13F0EBD5DEF
:1020B00010E10A0EBE5D0DE1070EF36E040EF3CFC4
:1020C000DBFF050EDB6A060EDB6E070EDB6A010E18
:1020D00021D03A0EB95D27E1450EBA5D24E1580ED4
:1020E000BB5D21E1540EBC5D1EE13F0EBD5D1BE1F9
:1020F0000A0EBE5D18E1050EF36E040EF3CFDBFF92
:10210000050EDB6A040EF36E060EF3CFDBFF070E3F
:10211000DB6A020EF36E080EF3CFDBFF090EDB6AFB
:102120000001A06B24D03A0EB95D21E14C0EBA5DDE
:102130001EE1450EBB5D1BE1440EBC5D18E13F0E88
:10214000BD5D15E10A0EBE5D12E10001010EA06F3A
:102150009A1901E19B5105E0020E9A1905E19B5184
:1021600003E10101310E02D00101300E706F3A0E11
:102170000101B05D01E0B9D0530EB15D01E0B5D011
:10218000450EB25D01E0B1D0540EB35D01E0ADD0BB
:102190003A0EB45D53E1540EB55D50E1430EB65DA9
:1021A0004DE1310EB75D4AE13A0EB85D47E14C0EA4
:1021B000B95D44E1450EBA5D41E1440EBB5D3EE1CF
:1021C000200EBC5D3BE1410EBD5D1BE1550EBE5DC9
:1021D00018E1540EBF5D15E14F0EC05D12E10A0E0D
:1021E000C15D0FE10001986B996B0101410E706FA9
:1021F000550E716F540E726F4F0E736F0001020E09
:102200001CD0310EBD5D0AE10A0EBE5D07E1020E73
:102210000001986F996B0101310E0CD0300EBD5D3D
:102220000DE10A0EBE5D0AE1030E0001986F996B85
:102230000101300E706F0001010EA06F3A0E010116
:10224000B45D53E1540EB55D50E1430EB65D4DE112
:10225000320EB75D4AE13A0EB85D47E14C0EB95D0A
:1022600044E1450EBA5D41E1440EBB5D3EE1200E06
:10227000BC5D3BE1410EBD5D1BE1550EBE5D18E14D
:10228000540EBF5D15E14F0EC05D12E10A0EC15D37
:102290000FE100019A6B9B6B0101410E706F550EAF
:1022A000716F540E726F4F0E736F0001020E1CD0CF
:1022B000310EBD5D0AE10A0EBE5D07E1020E0001AE
:1022C0009A6F9B6B0101310E0CD0300EBD5D0DE19C
:1022D0000A0EBE5D0AE1030E00019A6F9B6B0101BD
:1022E000300E706F0001010EA06F3A0E0101B05D5B
:1022F00001E07AD04D0EB15D01E076D04F0EB25DB7
:1023000073E1440EB35D70E1450EB45D6DE13A0ECC
:10231000B55D26E1540EB65D23E1430EB75D20E1C5
:10232000310EB85D1DE13A0EB95D5EE14C0EBA5D4D
:102330005BE1450EBB5D58E1440EBC5D55E13F0ECF
:10234000BD5D52E10A0EBE5D4FE1020E000199AF84
:1023500002D0D89003D0985D000E995929E334D06B
:102360003A0EB55D41E1540EB65D3EE1430EB75DF8
:102370003BE1320EB85D38E13A0EB95D35E14C0E05
:10238000BA5D32E1450EBB5D2FE1440EBC5D2CE130
:102390003F0EBD5D29E10A0EBE5D26E1020E000181
:1023A0009BAF02D0D89003D09A5D000E9B590CE2EF
:1023B0000101410E706F550E716F540E726F4F0E0A
:1023C000736F0001020E0FD001014D0E706F410EB0
:1023D000716F4E0E726F550E736F410E746F4C0E0F
:1023E000756F0001030EA06F3A0E0101B05D47E169
:1023F000430EB15D44E14F0EB25D41E14E0EB35D5F
:102400003EE1460EB45D3BE1490EB55D38E1470E55
:10241000B65D35E13A0EB75D1AE1410EB85D17E1E0
:10242000500EB95D14E1500EBA5D11E13F0EBB5D77
:102430000EE10A0EBC5D0BE1310E706F2E0E716F56
:10244000300E726F320E736F0001020E17D03A0E0B
:10245000B75D15E1480EB85D12E1570EB95D0FE1A9
:102460003F0EBA5D0CE10A0EBB5D09E1310E706FE3
:102470002E0E716F320E726F0001040EA06F3A0EB5
:102480000101B05D21E1680EB15D1EE1650EB25D36
:102490001BE16C0EB35D18E16C0EB45D15E16F0EBF
:1024A000B55D12E13F0EB65D0FE10A0EB75D0CE1BE
:1024B000680E706F650E716F6C0E726F736F6F0EBA
:1024C000746F0001060EA06F2A0E0101B05D12E1CB
:1024D000490EB15D0FE1440EB25D0CE14E0EB35DED
:1024E00009E13F0EB45D06E10A0EB55D03E10001AE
:1024F000050EA06F0001A05175E1080EDBCFE6FFCD
:10250000090EDBCFE6FF060EDBCFE9FF070EDBCFC0
:10251000EAFFC80EE926010EEA22EF50E66E040E2D
:10252000DBCFE9FF050EDBCFEAFFC80EE926010E7F
:10253000EA22EF50E66EA7EC09F0E552E552E552CB
:10254000E55206C09CF007C09DF008C09EF009C08F
:102550009FF00A0EDB6A0B0EDB6A0A0EDBCF14F06B
:102560000B0EDBCF15F0D890155004E60A0E145C64
:10257000000E155816E20A0EDBCFE9FF0B0EDBCF7B
:10258000EAFF700EE926010EEA22EF50200802E071
:10259000000E01D0010E0A0EDB2A0B0EDEE3DB2A51
:1025A000DCD79CC0E6FF9DC0E6FF9EC0E6FF9FC053
:1025B000E6FF700EE66E010EE66E77EC0DF0146E1F
:1025C000060EE15E14500101D06F14C0E9FFEA6A03
:1025D000E9BEEA68700EE926010EEA220A0EEF6EE5
:1025E000D02939D0A00505E101010A0E716F020E54
:1025F00032D0020EA05D05E101010A0E746F050ED6
:102600002AD0030EA05D05E101010A0E766F070EC8
:1026100022D0040EA05D02E101011AD0050EA05DDA
:1026200006E1370EE66E600EE66E000E18D0060E5E
:10263000A05D05E101010A0E756F060E0CD0090EB2
:10264000A05D13E10101450E706F720E716F726F24
:102650000A0E736F040EE66E700EE66E010EE66EE5
:102660001CEC1EF0E552E552E552BAEC1EF00D0EE0
:10267000E15C02E2E16AE552E16EE552E7CFD9FFA3
:1026800012001200120012001200F5EF1CF01200EE
:1026900043EF1DF00001C50520E10001C6051DE165
:1026A000A094F0DF64920001C66B0101100ED16F9F
:1026B0000E0ED26FD107000ED25BD151D211FAE1CA
:1026C0006484080ED16F070ED26FD107000ED25B63
:1026D000D151D211FAE16494A0841200D9CFE6FF5F
:1026E000E1CFD9FFFD0EDBCF08F0FE0EDBCF09F006
:1026F000050E081801E1095036E0E868081802E103
:102700007F0E09182FE0030E081801E1095028E098
:10271000020E081801E1095021E0010E081801E13C
:1027200009501AE0740E081801E1095013E0750E03
:10273000081801E109500CE0730E081801E1095076
:1027400005E0720E08180FE109500DD09CDF0BD088
:1027500098DF09D097DF07D09BDF05D098DF03D043
:1027600094DF01D091DF010EE552E7CFD9FF1200CF
:10277000D9CFE6FFE1CFD9FFE652A0940F015F6BFE
:10278000626A536B020EE66EE66AE66A540EE66E05
:102790000F0EE66E9CEC02F0146E050EE15E145016
:1027A000160E616E0F019F0E5B6F7B0E606EDF6A0F
:1027B000DF50146E156A0C0E145C000E155810E2F2
:1027C000DF50040DF3CFE9FFF4CFEAFF000EE92656
:1027D000020EEA22EE6AEE6AEE6AEE6ADF2AE8D7B5
:1027E000648C0F015C6B6498649C62A607D062964F
:1027F0000001B96BBE6BBF6BC06BF7D70001010E58
:10280000D26FD36FD46BD56BC66BDF6A030EDF5C00
:1028100026E2EA6ADF34FE0BEA36E96EAF0EE926FD
:10282000000EEA22EE6AED6AEA6ADF34FE0BEA364F
:10283000E96EA90EE926000EEA22EE6AED6ADF5083
:10284000EA6ACA0FE96E000EEA22EF6ADF50EA6A0E
:10285000CD0FE96E000EEA22EF6ADF2AD7D700011A
:10286000080EAF6F020EB06F0F01160E536F02010C
:10287000300E026F020E036F080E016F840E006FA0
:102880000001A26BA16BE552E552E7CFD9FF120020
:10289000D9CFE6FFE1CFD9FFE6520001A10507E15C
:1028A00064BA05D0626A60806088020EA16F6250CF
:1028B000040B06E06050040B03E0629431EC1AF064
:1028C00064B25AD06250010B09E06050010B06E07F
:1028D0004FDFA0840001040EA16F62906250100BC4
:1028E00006E06050100B03E01CEC1AF0629862AC3A
:1028F00019D060AC0FD0010EE66EE66A000EE66EEF
:10290000E66A730EE66EE66A6EEC13F0146E060E5F
:10291000E15E1450629C0001D05101E0D007D0511B
:1029200001E1FDD96250200B05E06050200B02E070
:1029300002EC1AF06250020B14E06050020B11E03E
:10294000010EE66EE66A000EE66EE66AE6687F0E47
:10295000E66E6EEC13F0146E060EE15E14500F017D
:102960005F6B040E0001E76EA119E8AE02D0E734F8
:1029700002D0E750A15D02E2A19439D060A636D022
:10298000DF6A040EDF5C32E262A630D063CFC7F0AC
:102990000001C751780BE842E842E842C86F6296EE
:1029A000C7B506D0C851EA6ACD0FE96E000E05D052
:1029B000C851EA6ACA0FE96E000EEA22EF70C851E8
:1029C00003E148EC1AF010D0000EE66EE66AC70E7E
:1029D000E66E000EE66E720EE66EE66A6EEC13F0C0
:1029E000146E060EE15E1450DF2ACBD7A194E55297
:1029F000E552E7CFD9FF1200D9CFE6FFE1CFD9FFEB
:102A0000020EE126FD0EDBA407D0E66AFE0EDBCF48
:102A1000E6FF14DAE552E552FD0EDBA208D0010E06
:102A2000E66EFE0EDBCFE6FF09DAE552E552FE0E5A
:102A3000DB50156A530F146E0F0E152214C0DEFF03
:102A400015C0DDFFDECFE9FFDDCFEAFFFD0EDBCFF6
:102A5000EFFF020EE15C02E2E16AE552E16EE5524F
:102A6000E7CFD9FF1200D9CFE6FFE1CFD9FF020EA1
:102A7000E126FD0EDB500AE0FE0EEA6ADB34FE0BB7
:102A8000EA36E96EAF0EE926000E09D0FE0EEA6ABC
:102A9000DB34FE0BEA36E96EA90EE926000EEA22C7
:102AA000EECFDEFFEDCFDDFFD9CFE9FFDACFEAFFD2
:102AB000EE50ED1003E1F36AF46A44D0DECFE9FF93
:102AC000DDCFEAFF020EE926000EEA22FB0EDBCF85
:102AD000EEFFFC0EDBCFEDFFDECFE9FFDDCFEAFF3F
:102AE000EE52FA0EDBCFEFFF400EDECFE9FFDDCF77
:102AF000EAFFE850EF16880EDECFE9FFDDCFEAFFF0
:102B0000E850EF12FD0EDB500AE0FE0EEA6ADB34FD
:102B1000FE0BEA36E96EAF0EE926000E09D0FE0E76
:102B2000EA6ADB34FE0BEA36E96EA90EE926000EEE
:102B3000EA22EF74DECF14F0DDCF15F014C0F3FFFE
:102B400015C0F4FF020EE15C02E2E16AE552E16EBB
:102B5000E552E7CFD9FF1200D9CFE6FFE1CFD9FF89
:102B6000020EE126FE0EDB5020E1A7C0E9FFA8C05F
:102B7000EAFFEE52080EEF6EA7C0E9FFA8C0EAFF19
:102B8000020EE926000EEA22300EEE6E020EED6E07
:102B9000A7C0E9FFA8C0EAFF8C0EEF6EAFC0E9FF47
:102BA000B0C0EAFF840EEF6E3BD0FD0EDB50E82490
:102BB000166EFE0EDB50040DF3501624040DF3CFF9
:102BC00014F0F4CF15F0000E1426020E152214C0D6
:102BD000DEFF15C0DDFF840EDECFE9FFDDCFEAFFAB
:102BE000E850EF12FD0EDB50E824166EFE0EDB50AF
:102BF000040DF3501624010F040DF3CF14F0F4CF9D
:102C000015F0000E1426020E152214C0DEFF15C0AA
:102C1000DDFF840EDECFE9FFDDCFEAFFE850EF12E3
:102C2000020EE15C02E2E16AE552E16EE552E7CFB5
:102C3000D9FF1200D9CFE6FFE1CFD9FF64A84ED06B
:102C4000FE0EEA6ADB34FE0BEA36E96EAF0EE926C9
:102C5000000EEA22EE50EFCFEAFFE96E400EEE16CC
:102C6000EE6AEE6AEE6AFE0EEA6ADB34FE0BEA36C4
:102C7000E96EAF0EE926000EEA22EE50EFCFEAFF32
:102C8000E96EEE7CFE0EEA6ADB34FE0BEA36E96E94
:102C9000AF0EE926000EEA22EF74400E146EFE0E0F
:102CA000EA6ADB34FE0BEA36E96EAF0EE926000E67
:102CB000EA22EE50EFCFEAFFE96E1450EF16FE0E57
:102CC000EA6ADB34FE0BEA36E96EAF0EE926000E47
:102CD000EA22EE50EFCFEAFFE96EEF7CE552E7CF54
:102CE000D9FF1200646A606A0001A16B1200000142
:102CF000A15114E1646A606A160E616E0F019F0EA5
:102D00005B6F7B0E606ED08EA284A084F28E64B660
:102D100002D06486FCD70001010EA16F12000001F1
:102D2000D2514DE1010ED26FD35149E1010ED36F63
:102D3000020EB65D0DE1AFC0E9FFB0C0EAFFEE5292
:102D4000EF6AAFC0E9FFB0C0EAFFC80EEF6E120035
:102D5000B60535E1C96BA5C0E9FFA6C0EAFFEE5292
:102D6000080EEF6EA5C0E9FFA6C0EAFF020EE92635
:102D7000000EEA22300EEE6E020EED6EA5C0E9FFE7
:102D8000A6C0EAFF840EEF6E010EC96FA7C0E9FF6F
:102D9000A8C0EAFFEE52080EEF6EA7C0E9FFA8C078
:102DA000EAFF020EE926000EEA22300EEE6E020E57
:102DB000ED6EA7C0E9FFA8C0EAFF800EEF6E12001B
:102DC0000001D46BD56B020EB65D18E1A7C0E9FF18
:102DD000A8C0EAFFEE52080EEF6EA7C0E9FFA8C038
:102DE000EAFF020EE926000EEA22380EEE6E020E0F
:102DF000ED6EA7C0E9FFA8C0EAFF1DD0BA510201DD
:102E0000365D0001BB510201375904E236C2BAF007
:102E100037C2BBF0CAD8AFC0E9FFB0C0EAFF020EAC
:102E2000E926000EEA22380EEE6E020EED6EAFC0FD
:102E3000E9FFB0C0EAFFC80EEF6E1200D9CFE6FF7F
:102E4000E1CFD9FF020EE126000EDE6E020EDD6E2E
:102E5000FD0EDB50E824166EFE0EDB50040DF35021
:102E60001624040DF4CF15F0D9CFE9FFDACFEAFF2D
:102E7000F350EE261550ED22DECFE9FFDDCFEAFF5D
:102E8000EF9EFD0EDB500AE1FE0EEA6ADB34FE0B1C
:102E9000EA36E96EA90EE926000E09D0FE0EEA6AAE
:102EA000DB34FE0BEA36E96EAF0EE926000EEA22AD
:102EB000DECFEEFFDDCFEDFFDECFE9FFDDCFEAFFB6
:102EC000EF9CDECFE9FFDDCFEAFF040EE926000E1E
:102ED000EA22EF8C020EE15C02E2E16AE552E16E69
:102EE000E552E7CFD9FF120064980001B9BF2BD09B
:102EF000BEAF09D0020EB66FD55101E161DF00010E
:102F0000D36BD26B1200A7C0E9FFA8C0EAFFEE5254
:102F1000080EEF6EA7C0E9FFA8C0EAFF020EE9267F
:102F2000000EEA22300EEE6E020EED6EA7C0E9FF33
:102F3000A8C0EAFF8C0EEF6EAFC0E9FFB0C0EAFF99
:102F4000840EEF6E1200020130AF0DD00001010EB1
:102F5000B66FD45101E134DF0001D36BD26BD15194
:102F600023E18FEF16F00001020EB66FA7C0E9FF54
:102F7000A8C0EAFFEE52080EEF6EA7C0E9FFA8C096
:102F8000EAFF020EE926000EEA22300EEE6E020E75
:102F9000ED6EA7C0E9FFA8C0EAFF840EEF6ED36B09
:102FA000D26BD15101E1BBDE1200D9CFE6FFE1CFF8
:102FB000D9FFE652080EDF6E0001BA5D000EBB5964
:102FC0000AE2BAC0DFFFB55102E1010E03D0B50538
:102FD00002E1020EB56FDF50156AE850BA5DBA6FB4
:102FE0001550BB59BB6FAFC0E9FFB0C0EAFFEE524E
:102FF000DFCFEFFF380EC36F020EC46FB9B118D028
:10300000DF502DE0B7C0F6FFB8C0F7FFB72B000EBA
:10301000B8230800F550E66EC3C0E9FFC4C0EAFF5C
:10302000C32B000EC423E552E750EF6EDF06E8D74E
:10303000DF5015E0B7C0E9FFB8C0EAFFB72B000EBC
:10304000B823EF50E66EC3C0E9FFC4C0EAFFC32B4C
:10305000000EC423E552E750EF6EDF06E9D7E552D4
:10306000E552E7CFD9FF1200D9CFE6FFE1CFD9FF74
:10307000020EE126A5C0E9FFA6C0EAFFEE52EFCF9F
:10308000DFFFDFCF14F014500001BF5D000EC05908
:1030900002E2BFC0DFFFDF50146E156AE850BF5D6B
:1030A000BF6F1550C059C06F010EDB6ADF50F36E61
:1030B000010EDBCFF4FFF350F45C16E2010EDB509F
:1030C000EA6A380FE96E020EEA22EF50E66EBCC0E3
:1030D000E9FFBDC0EAFFBC2B000EBD23E552E7505F
:1030E000EF6E010EDB2AE2D7000ED880BF55000E2E
:1030F000C05527E2A7C0E9FFA8C0EAFFEE52080EBC
:10310000EF6EA7C0E9FFA8C0EAFF020EE926000E95
:10311000EA22380EEE6E020EED6EA5C0E9FFA6C0E3
:10312000EAFFEF50400B06E1A7C0E9FFA8C0EAFFA5
:10313000C80E05D0A7C0E9FFA8C0EAFF880EEF6E51
:1031400028D0A7C0E9FFA8C0EAFFEE52080EEF6E34
:10315000A7C0E9FFA8C0EAFF020EE926000EEA2296
:10316000300EEE6E020EED6EA7C0E9FFA8C0EAFFBA
:10317000840EEF6EC151C21107E005D0C2C0FAFF44
:103180000001C151F96EFADF0001BE9FD15101E18A
:10319000C6DD020EE15C02E2E16AE552E16EE55253
:1031A000E7CFD9FF1200D9CFE6FFE1CFD9FFE65232
:1031B0000001B98F020EE66EE66AE66A540EE66E0C
:1031C0000F0EE66E9CEC02F0146E050EE15E1450DC
:1031D000300EE66EE66AE66A000EE66E020EE66EF7
:1031E0009CEC02F0146E050EE15E1450648CDF6AF4
:1031F000030EDF5C10E2DF50EA6ACA0FE96E000ED0
:10320000EA22EF6ADF50EA6ACD0FE96E000EEA2289
:10321000EF6ADF2AEDD7020EE66EE66AE66AA30ED3
:10322000E66E000EE66E9CEC02F0146E050EE15E9A
:103230001450649C0001080EAF6F020EB06F000EB8
:10324000A56F020EA66FA5C0A7F0A86F32C2A2F0AC
:10325000A25102E1100E12D0010EE66EE66AA20E35
:10326000E66E000EE66E010EE66EE66A6EEC13F098
:10327000146E060EE15E14500001200EA16FE5529F
:10328000E552E7CFD9FF1200800E0201305D58E110
:103290000001C00EB96F02013351030A2FE0010A89
:1032A00009E0030A4BE10001C20EB76F3E0EB86F92
:1032B000120E3ED03251F66EF76AD890F636F736D7
:1032C000670EF6263F0EF7220900F5CFB7F00A0089
:1032D000F5CFB8F0020E0001F76AB725F66EB851C7
:1032E000F7220800F5CFBAF0030EF76AB725F66E9D
:1032F000B851F7220800F5CFBBF01200030E325D83
:103300001AE23251F66EF76AD890F636F736690E41
:10331000F6263F0EF7220900F5CFB7F00A00F5CFE9
:10332000B8F0B7C0F6FFB8C0F7FF0800F5500001CD
:10333000BA6FBB6B12000001B96B12000001B96BD0
:103340001200D9CFE6FFE1CFD9FF020EE12602013C
:10335000386B396B30511F0B020A11E0030A0CE085
:10336000010A3CE10001B98F020138810001C50565
:1033700035E10201388332D00001B98F2FD000012E
:10338000B98F020134BF0BD034510F0BE96EEA6ADA
:10339000D890E936EA36A90EE926000E0AD0345153
:1033A0000F0BE96EEA6AD890E936EA36AF0EE926E5
:1033B000000EEA22EECFDEFFEDCFDDFFDECFE9FF2C
:1033C000DDCFEAFFEF50800B09E0DECFE9FFDDCF74
:1033D000EAFFEF50040B02E0010E386F0001B9AFB5
:1033E00007D0380EB76F020EB86FB981020EBA6FF0
:1033F000020EE15C02E2E16AE552E16EE552E7CFDE
:10340000D9FF12000F0153A115D0A5C0E9FFA6C036
:10341000EAFFEF5080080DE1AFC0E9FFB0C0EAFF5E
:10342000EF50840806E1A5C0E9FFA6C0EAFF8C0EB4
:10343000EF6E5391629A1200608462986482000178
:10344000010EC66F000EE66EE66AE66EE66A750E5F
:10345000E66EE66A6EEC13F0146E060EE15E145032
:1034600012000001C66B000EE66EE66AE66EE66AC2
:10347000740EE66EE66A6EEC13F0146E060EE15EF4
:1034800014506492609462A402D06294FCD712003B
:10349000D9CFE6FFE1CFD9FFE65200012D0ED06F64
:1034A000FD0EC71553E17E0EC715E8407F0B040DD6
:1034B000F3CFA5F0F4CFA6F0000EA527020EA623A9
:1034C000A5C0A7F0A6C0A8F0A775A5C0E9FFA6C033
:1034D000EAFFEF503C0BE842E8420D0835E1DF6AB5
:1034E000080EDF5C23E2A5C0E9FFA6C0EAFF020EDA
:1034F000E926000EEA22EE50EFCFEAFFE96EEF5028
:10350000E66EDF50EA6A300FE96E020EEA22E552FB
:10351000E750EF6EA5C0E9FFA6C0EAFF020EE9265C
:10352000000EEA22EE2AEF22DF2ADAD7A5C0E9FF51
:10353000A6C0EAFF020EE926000EEA22300EEE6E69
:10354000020EED6E0DD807D03AD805D0FD0EC71586
:10355000040801E159D8E552E552E7CFD9FF12003E
:103560000001B56BD16BD46BD56BC96BB66BAFC0BB
:10357000E9FFB0C0EAFFEF9EAF75AFC0E9FFB0C092
:10358000EAFFEF9EAF75A7C0E9FFA8C0EAFFEF9E74
:10359000B96BBA6BBB6BBE6BBF6BC06B8FD8000EC9
:1035A000E66EE66AE66EE66A030EE66EE66A6EECC4
:1035B00013F0146E060EE15E145074EF17F0020E55
:1035C0000001B65D02E134EF18F0B66BC9511AE1A3
:1035D000A7C0E9FFA8C0EAFFEE52080EEF6EA7C031
:1035E000E9FFA8C0EAFF020EE926000EEA22300E2B
:1035F000EE6E020EED6EA7C0E9FFA8C0EAFF8C0ECA
:10360000EF6E1200C96B1200D9CFE6FFE1CFD9FFF0
:10361000E652AFC0E9FFB0C0EAFFEF50400B01E057
:10362000010EDF6E0001AF75080EA15D0BE132C225
:103630005CFF0F015C5103E00001100E02D000019D
:10364000040EA16FB60526E1AFC0E9FFB0C0EAFFE6
:10365000020EE926000EEA22380EEE6E020EED6E24
:10366000A4DC020E0001B55D06E1AFC0E9FFB0C009
:10367000EAFF840E0DD0DF5006E1AFC0E9FFB0C015
:10368000EAFFC80E05D0AFC0E9FFB0C0EAFF880E60
:10369000EF6E0FD0BEAF0CD0C151C21107E005D004
:1036A000C2C0FAFF0001C151F96EFADF0001BE9FEE
:1036B000B66BE552E552E7CFD9FF12000201305157
:1036C000600BE842E842E842E842E842000901E0D3
:1036D000120031510C0A50E00B0A3FE00C0A31E0B5
:1036E000010A22E00B0A1EE0020A1CE0030A18E0AD
:1036F000080A10E0010A0CE00F0A08E0030A01E0E2
:1037000012000001B98F080EA16F120044EF19F0EA
:10371000D3EF18F00001A20EB76F000EB86F0CD0F7
:10372000A1EF19F0BDEF1BF034510001B76FB86B7A
:10373000A30EB727000EB823B981010EBA6FB98F57
:1037400012000001B98F02013451EA6AA30FE96E39
:10375000000EEA2232C2EFFF1200000EE66EE66AA9
:10376000E66EE66A020EE66EE66A6EEC13F0146E22
:10377000060EE15E145012001200D9CFE6FFE1CF31
:10378000D9FF050EE1260201320510E130511F0B71
:1037900000090CE10001B98F030E0201315D04E163
:1037A0000001010EC56F02D00001C56B020132514C
:1037B00001E011D130511F0B020801E00CD134514E
:1037C0000F0B000901E107D134510F0B020801E290
:1037D00002D1200E0001A15D01E0FDD0B98F0201F0
:1037E00034BF16D034510F0BE96EEA6AD890E9362F
:1037F000EA36A90EE926000EEA22EECFDEFFEDCF73
:10380000DDFF34510F0BEA6ACD0FE96E000E15D0C3
:1038100034510F0BE96EEA6AD890E936EA36AF0EFA
:10382000E926000EEA22EECFDEFFEDCFDDFF3451B8
:103830000F0BEA6ACA0FE96E000EEA22020EEFCF02
:10384000DBFFD950020FE96EDACFEAFFEF50010B30
:1038500003E1000EDF9401D0DF8434BF0BD034517C
:103860000F0BE96EEA6AD890E936EA36A90EE92626
:10387000000E0AD034510F0BE96EEA6AD890E9368F
:10388000EA36AF0EE926000EEA22DECFEEFFDDCFEC
:10389000EDFF030E315D20E1DECFE9FFDDCFEAFF72
:1038A000EF50800B11E034BF07D034510F0BEA6AA0
:1038B000CD0FE96E000E06D034510F0BEA6ACA0F25
:1038C000E96E000EEA22EF82840EDECFE9FFDDCF43
:1038D000EAFFE850EF127FD0DF74DECFE9FFDDCFE3
:1038E000EAFFEF50800B1BE0DECFE9FFDDCFEAFF00
:1038F000EF9EDECFE9FFDDCFEAFFEF8C020EE66E32
:10390000E66ADECFE6FFDDCFE6FF050EE66EE66A8D
:103910006EEC13F0146E060EE15E145005D0DECF8F
:10392000E9FFDDCFEAFFEF8CDF74D950020FE96EBB
:10393000DACFEAFFEF50020B07E1DECFE9FFDDCF80
:10394000EAFFEF50800B2BE0020134BF07D0345167
:103950000F0BEA6ACD0FE96E000E06D034510F0B43
:10396000EA6ACA0FE96E000EEA22EF923B0E146E6D
:10397000DECFE9FFDDCFEAFFE850EF16020EE66E7C
:10398000E66ADECFE6FFDDCFE6FF050EE66EE66A0D
:103990006EEC13F0146E060EE15E145007D03B0E71
:1039A000DECFE9FFDDCFEAFFE850EF160201345128
:1039B0000F0B156A530F146E0F0E1522030E14C051
:1039C000DBFF040E15C0DBFF030EDBCFE9FF040EA7
:1039D000DBCFEAFFEF90050EE15C02E2E16AE5521F
:0A39E000E16EE552E7CFD9FF1200B7
:0639EA00020130511F0B29
:1039F000010801E012003051600BE842E842E84261
:103A0000E842E842010801E01200345103E03405C5
:103A100001E012003151220A31E0030A24E0010AD8
:103A200015E0210A0DE0010A01E012000001E40E98
:103A3000B76F010EB86F080EBA6FBB6BB98121D09A
:103A40000001E40EB76F010EB86F1BD036C2BFF095
:103A500037C2C0F00001C00EBC6F020EBD6FC16B5B
:103A6000C26BBE8F12000001C00EB76F020EB86F9E
:103A7000070EBA6FBB6BC10EB96F120032C2DFF115
:103A80000001B98F12000201C06B4B0EC16FC26BF7
:103A9000C36BC46BC56B080EC66F0101D36B1A0EE6
:103AA000E66E010EE66EFCEC14F0E552E5521E0ED9
:103AB000E66E020EE66EFCEC14F0E552E552400EA6
:103AC000E66E800EE66E020EE66EE66A020EE66EA8
:103AD00033EC15F0146E050EE15E1450F3CFDBF1FC
:103AE000F4CFDCF10101DD6BDE6BD46B1200D9CFBA
:103AF000E6FFE1CFD9FFFD0EDBCF08F0FE0EDBCFF6
:103B000009F0050E081801E1095002E0000E30D05E
:103B1000FB0EDBCF14F0FC0EDBCF15F00101DB5107
:103B2000141816E1DC51151813E1400EE66E800EF4
:103B3000E66E020EE66EE66A020EE66E33EC15F0F5
:103B4000146E050EE15E1450F3CFDBF1F4CFDCF11F
:103B5000FB0EDBCF14F0FC0EDBCF15F00101DD51C5
:103B6000141805E1DE51151802E1D46BD96B010E72
:103B7000E552E7CFD9FF1200D9CFE6FFE1CFD9FF59
:103B80000101D36BDB51DC1102E1000E08D0DBC177
:103B9000E9FFDCC1EAFFEF50800B01E0010E0009F4
:103BA00045E1FC0EDBCF14F0DBC1E9FFDCC1EAFF2D
:103BB000EE52EF50D880145408E2DBC1E9FFDCC1BB
:103BC000EAFFEE52FC0EEFCFDBFFD36BFC0EDB50B7
:103BD000D35D19E2D351EA6A800FE96E020EEA2240
:103BE000EF50E66ED351E76EFD0EDBCFE9FFFE0E20
:103BF000DBCFEAFFE750E926000EEA22E552E75064
:103C0000EF6ED32BE3D7400EE66E800EE66E020E0B
:103C1000E66EE66A020EE66E33EC15F0146E050EE3
:103C2000E15E1450F3CFDBF1F4CFDCF10101D351AD
:103C3000E552E7CFD9FF1200D9CFE6FFE1CFD9FF98
:103C4000A0940101D4510CE1FD0EDBCFD5F1FE0EA5
:103C5000DBCFD6F1FC0EDBCFD9F1010EDA6FD46FDA
:103C6000A084E552E7CFD9FF1200D9CFE6FFE1CF1C
:103C7000D9FF030EE126A0940101D4512DE1DF6AA2
:103C8000FD0EDBCF08F0FE0EDBCF09F0DE5208C0E0
:103C9000DEFF09C0DDFFDD52DF2ADF50146E156A3A
:103CA000FF0E141802E115500BE0010EDBCFE9FF07
:103CB000DB2A020EDBCFEAFF01E3DB2AEF50ECE167
:103CC000FD0EDBCFD5F1FE0EDBCFD6F1DFCFD9F184
:103CD0000101010EDA6FD46FA084030EE15C02E2F1
:103CE000E16AE552E16EE552E7CFD9FF1200D9CF84
:103CF000E6FFE1CFD9FF030EE126A0940101D451E4
:103D00002EE1DF6AFD0EDBCF08F0FE0EDBCF09F0FF
:103D1000DE5208C0DEFF09C0DDFFDD52DF2ADF50C2
:103D2000146E156AFF0E141802E115500CE0010E16
:103D3000DBCFF6FFDB2A020EDBCFF7FF01E3DB2A46
:103D40000800F550EBE1FD0EDBCFD5F1FE0EDBCF29
:103D5000D6F1DFCFD9F10101DA6B010ED46FA08467
:103D6000030EE15C02E2E16AE552E16EE552E7CF63
:103D7000D9FF1200D9CFE6FFE1CFD9FF020EE1262D
:103D8000A0940101DD51DE1102E1000E08D0DDC179
:103D9000E9FFDEC1EAFFEF50800B01E0010E0009F0
:103DA00006E1030ED45D01E1D46BD45102E1A0849D
:103DB0007ED0020ED45D16E1E66A000EE66EE66A7B
:103DC000010EE66E020EE66E33EC15F0146E050E73
:103DD000E15E1450F3CFDDF1F4CFDEF10101030E0B
:103DE000D46F64D0D40562E1400E146E156AD951C7
:103DF000145C000E155803E2400EDF6E02D0D9C1EC
:103E0000DFFFDF50D95DD96F400ED76F020ED86F3C
:103E1000010EDFCFDBFFDA5116E1010EDB5028E0A7
:103E2000D5C1F6FFD6C1F7FF0800F550D7C1E9FFAD
:103E3000D8C1EAFFEF6ED72B000ED823D52BD6239F
:103E4000010EDB06EAD7010EDB5012E0D5C1E9FF17
:103E5000D6C1EAFFEF50D7C1E9FFD8C1EAFFEF6E44
:103E6000D72B000ED823D52BD623010EDB06EBD79C
:103E70000101D95107E1400EDF5C02E1020E01D0E1
:103E8000030ED46FDFCFE6FF400EE66E020EE66E45
:103E9000010EE66E020EE66E33EC15F0146E050EA2
:103EA000E15E1450F3CFDDF1F4CFDEF1A084020E19
:103EB000E15C02E2E16AE552E16EE552E7CFD9FF4B
:023EC0001200EE
:0E3EC2001201000202000008D804AA0000014C
:103ED0000102000109024300020100C0320904008E
:103EE0000001020201000524001001042402020561
:103EF00024060001052401000107058103080002D2
:103F000009040100020A0000000705020240000047
:103F1000070582024000000403090420034D0061EC
:103F2000006B0069006E00670020004400650076A9
:103F300000690063006500730020002C0343004407
:103F40000043002000200054004300440045005678
:103F500000490043004500200020004C004F00476E
:0F3F600000470045005200D43E173F1B3F3B3F38
:103F7000D9CFE6FFDACFE6FFE1CFD9FFE2CFDAFF14
:103F80003F0EC716C66AFD0EDB50C612FB0EDB5095
:103F9000C712FC0EDB50030A09E0010A04E0020A22
:103FA00006E1C78C04D0C78CC68801D0C688FD0E38
:103FB000DB50050A05E0010A05E1938C948C03D0DF
:103FC000938C01D0939C949E9388C68AE552E5CF4A
:083FD000DAFFE7CFD9FF120070
:083FD800000EF36E00EE00F094
:103FE000030E01D81200EA6002D0EE6AFCD7F3504B
:083FF000E9601200EE6AFCD743
:023FF8001200B5
:020000040030CA
:0100000000FF
:0100010032CC
:0100020003FA
:010003001EDE
:0100050000FA
:010006008178
:0100080003F4
:01000900C036
:01000A0003F2
:01000B00E014
:01000C0003F0
:01000D0040B2
:00000001FF
